:020000040000fa
:080000000002040000000000f2
:020000040000fa
:040008003a040000b6
:020000040000fa
:04000c003a040000b2
:020000040000fa
:040010003a040000ae
:020000040000fa
:040014003a040000aa
:020000040000fa
:040018003a040000a6
:020000040000fa
:04001c003a040000a2
:020000040000fa
:040020003a0400009e
:020000040000fa
:040024003a0400009a
:020000040000fa
:040028003e03000093
:020000040000fa
:04002c003a04000092
:020000040000fa
:040030003a0400008e
:020000040000fa
:04003400980300002d
:020000040000fa
:040038003a04000086
:020000040000fa
:04003c003a04000082
:020000040000fa
:040040003a0400007e
:020000040000fa
:040044003a0400007a
:020000040000fa
:04004800ce030000e3
:020000040000fa
:04004c003a04000072
:020000040000fa
:040050003a0400006e
:020000040000fa
:040054003a0400006a
:020000040000fa
:040058003a04000066
:020000040000fa
:04005c000e0300008f
:020000040000fa
:040060003a0400005e
:020000040000fa
:040064003a0400005a
:020000040000fa
:040068003a04000056
:020000040000fa
:04006c003a04000052
:020000040000fa
:040070003a0400004e
:020000040000fa
:040074003a0400004a
:020000040000fa
:040078005c03000025
:020000040000fa
:04007c003a04000042
:020000040000fa
:040080003a0400003e
:020000040000fa
:040084003a0400003a
:020000040000fa
:040088003a04000036
:020000040000fa
:04008c003a04000032
:020000040000fa
:040090003a0400002e
:020000040000fa
:040094003a0400002a
:020000040000fa
:04009800040400005c
:020000040000fa
:04009c007a030000e3
:020000040000fa
:0400a0003a0400001e
:020000040000fa
:0400a4003a0400001a
:020000040000fa
:0400a8003a04000016
:020000040000fa
:0400ac003a04000012
:020000040000fa
:0400b0003a0400000e
:020000040000fa
:0400b4003a0400000a
:020000040000fa
:0400b8003a04000006
:020000040000fa
:0400bc003a04000002
:020000040000fa
:0400c0003a040000fe
:020000040000fa
:0400c4003a040000fa
:020000040000fa
:0400c8003a040000f6
:020000040000fa
:0400cc003a040000f2
:020000040000fa
:0400d0003a040000ee
:020000040000fa
:0400d4003a040000ea
:020000040000fa
:0400d8003a040000e6
:020000040000fa
:0400dc003a040000e2
:020000040000fa
:0400e0003a040000de
:020000040000fa
:0400e4003a040000da
:020000040000fa
:0400e8003a040000d6
:020000040000fa
:0400ec003a040000d2
:020000040000fa
:0400f0003a040000ce
:020000040000fa
:0400f4003a040000ca
:020000040000fa
:0400f8003a040000c6
:020000040000fa
:0400fc003a040000c2
:020000040000fa
:040100003a040000bd
:020000040000fa
:040104003a040000b9
:020000040000fa
:040108003a040000b5
:020000040000fa
:04010c003a040000b1
:020000040000fa
:040110003a040000ad
:020000040000fa
:040114003a040000a9
:020000040000fa
:040118003a040000a5
:020000040000fa
:04011c003a040000a1
:020000040000fa
:040120003a0400009d
:020000040000fa
:040124003a04000099
:020000040000fa
:040128003a04000095
:020000040000fa
:04012c003a04000091
:020000040000fa
:040130003a0400008d
:020000040000fa
:040134003a04000089
:020000040000fa
:040138003a04000085
:020000040000fa
:04013c003a04000081
:020000040000fa
:040140003a0400007d
:020000040000fa
:040144003a04000079
:020000040000fa
:040148003a04000075
:020000040000fa
:04014c003a04000071
:020000040000fa
:040150003a0400006d
:020000040000fa
:040154003a04000069
:020000040000fa
:040158003a04000065
:020000040000fa
:04015c003a04000061
:020000040000fa
:040160003a0400005d
:020000040000fa
:040164003a04000059
:020000040000fa
:040168003a04000055
:020000040000fa
:04016c003a04000051
:020000040000fa
:040170003a0400004d
:020000040000fa
:040174003a04000049
:020000040000fa
:040178003a04000045
:020000040000fa
:04017c003a04000041
:020000040000fa
:040180003a0400003d
:020000040000fa
:040184003a04000039
:020000040000fa
:040188003a04000035
:020000040000fa
:04018c003a04000031
:020000040000fa
:040190003a0400002d
:020000040000fa
:040194003a04000029
:020000040000fa
:040198003a04000025
:020000040000fa
:04019c003a04000021
:020000040000fa
:0401a0003a0400001d
:020000040000fa
:0401a4003a04000019
:020000040000fa
:0401a8003a04000015
:020000040000fa
:0401ac003a04000011
:020000040000fa
:0401b0003a0400000d
:020000040000fa
:0401b4003a04000009
:020000040000fa
:0401b8003a04000005
:020000040000fa
:0401bc003a04000001
:020000040000fa
:0401c0003a040000fd
:020000040000fa
:0401c4003a040000f9
:020000040000fa
:0401c8003a040000f5
:020000040000fa
:0401cc003a040000f1
:020000040000fa
:0401d0003a040000ed
:020000040000fa
:0401d4003a040000e9
:020000040000fa
:0401d8003a040000e5
:020000040000fa
:0401dc003a040000e1
:020000040000fa
:0401e0003a040000dd
:020000040000fa
:0401e4003a040000d9
:020000040000fa
:0401e8003a040000d5
:020000040000fa
:0401ec003a040000d1
:020000040000fa
:0401f0003a040000cd
:020000040000fa
:0401f4003a040000c9
:020000040000fa
:0401f8003a040000c5
:020000040000fa
:0401fc003a040000c1
:020000040000fa
:040200003a040000bc
:020000040000fa
:040204003a040000b8
:020000040000fa
:040208003a040000b4
:020000040000fa
:04020c003a040000b0
:020000040000fa
:040210003a040000ac
:020000040000fa
:040214003a040000a8
:020000040000fa
:040218003a040000a4
:020000040000fa
:04021c003a040000a0
:020000040000fa
:040220003a0400009c
:020000040000fa
:040224003a04000098
:020000040000fa
:040228003a04000094
:020000040000fa
:04022c003a04000090
:020000040000fa
:040230003a0400008c
:020000040000fa
:040234003a04000088
:020000040000fa
:040238003a04000084
:020000040000fa
:04023c003a04000080
:020000040000fa
:040240003a0400007c
:020000040000fa
:040244003a04000078
:020000040000fa
:040248003a04000074
:020000040000fa
:04024c003a04000070
:020000040000fa
:040250003a0400006c
:020000040000fa
:040254003a04000068
:020000040000fa
:040258003a04000064
:020000040000fa
:04025c003a04000060
:020000040000fa
:040260003a0400005c
:020000040000fa
:040264003a04000058
:020000040000fa
:040268003a04000054
:020000040000fa
:04026c003a04000050
:020000040000fa
:040270003a0400004c
:020000040000fa
:040274003a04000048
:020000040000fa
:040278003a04000044
:020000040000fa
:04027c003a04000040
:020000040000fa
:040280003a0400003c
:020000040000fa
:100400000f5521000eff27000e018800000000009c
:10041000000020000000e000020032000001200087
:100420002002880014000700360107000000e000e9
:1004300003003a0080a522000100200002003700de
:100440000000200001002000810f70000100320038
:100450000f000700000020000000e0000200320052
:1004600000000200000000000c1802000000000064
:100470000040da000000fe00200020000000e00044
:1004800002003200100020009001880000000600e9
:10049000a1028800800478000000eb001f003700f4
:1004a000e284440054a0b4009905ba00e2844400f8
:1004b00054a0b4009906ba00e284440054a0b400e9
:1004c0000006eb00476fde00fd07b200ae018800ba
:1004d000636ce10003003a000ad801000000eb0061
:1004e0000e003700606ce10008003a00004deb00a0
:1004f0000a05e800020039003420ec000af0a000f0
:100500008b05e900f9ff3e00040037006168e10057
:10051000010032000086eb000b00070019c7ba008b
:100520000e04e0001905ba0003003a000a00e000da
:10053000dbff3a0000000600fe07b200ae028800b2
:100540008a047800f5ff37000cd0a300e20f4d00bd
:100550001c00390089027800354dba000a05e80010
:10056000020039003420ec000af0a0008b05e900fd
:100570000f003200254dba000a05e80002003900dc
:100580003420ec000af0a0008b05e90008003200de
:100590000c00e0000600320015cdba000a05e800a4
:1005a000020039003420ec000af0a0008b05e900bd
:1005b0008984e80054a0b4000b00e000e2ff3a0098
:1005c000000006009902ba00055d78008b05e9007d
:1005d000f7ff3200c82ade00055d78008b05e900d0
:1005e000f3ff32000c00e000f1ff320019ddba0029
:1005f000eeff3700a42f040000000000862e040048
:1006000000000000fa300400000000004e09040061
:100610000000000000000400000000003600f800a8
:10062000809fbe00829fbe00849fbe00869fbe004a
:100630003200f8003400f80010002000a00188000b
:100640001000200090018800000000000000fa0067
:10065000a018070001a8a9000080fa003400f900e2
:100660003200f9004f03be004f02be004f01be0032
:100670004f00be003600f900004006003600f800ca
:10068000809fbe00829fbe00849fbe00869fbe00ea
:100690000000fa000f1707000008a9000080fa0008
:1006a0004f03be004f02be004f01be004f00be0010
:1006b0003600f900004006003600f800809fbe00ba
:1006c000829fbe00849fbe00869fbe000000fa008d
:1006d000031707000288a9000080fa004f03be003c
:1006e0004f02be004f01be004f00be003600f900b1
:1006f000004006003600f800809fbe00829fbe00ca
:10070000849fbe00869fbe000000fa003c170700d1
:1007100003a8a9000080fa004f03be004f02be00ec
:100720004f01be004f00be003600f9000040060039
:100730003600f800809fbe00829fbe00849fbe00ee
:10074000869fbe000000fa00908280000000e0005a
:1007500002003200908280000000010070542100ed
:10076000104078008040e800705421000148780073
:100770006054210011c0b300014878000068a9004e
:100780000080fa004f03be004f02be004f01be00c2
:100790004f00be003600f900004006003600f800a9
:1007a000809fbe00829fbe00849fbe00869fbe00c9
:1007b0000000fa00a08280000000e0000200320089
:1007c000a0828000000001009054210010407800b9
:1007d0008040e800905421000148780080542100b6
:1007e00011c0b300014878000108a9000080fa0098
:1007f0004f03be004f02be004f01be004f00be00bf
:100800003600f900004006003600f800809fbe0068
:10081000829fbe00849fbe00869fbe000000fa003b
:10082000b08280000000e00002003200b082800050
:1008300000000100b0542100104078008040e80022
:10084000b054210001487800a054210011c0b30029
:10085000014878000388a9000080fa004f03be0019
:100860004f02be004f01be004f00be003600f9002f
:10087000004006000040da000000fe00889fbe0035
:100880008004780070aa80000000e00004003a00b4
:100890000f0007000084eb000000e00008003500b6
:1008a00078aa80000900e000050032000900440039
:1008b000070007000000e00001003d000084eb009d
:1008c000080078004f04be0000000600000005008c
:1008d000800078000100e00003003a0000002000e2
:1008e00070aa8800000005000080eb0002002000d4
:1008f000828f500002003e0071aa88000000eb00c9
:100900000000060000000500839f68000100e00071
:1009100002003d0060001000e08018000300e000cd
:1009200002003d0060011100e08119000500070090
:100930004f00e00002003b0060001000e080180063
:10094000000006006022b800060220000000d0006f
:100950008180d2000482d2008582d2000000a000f3
:100960000202520083825a00030031000202420058
:1009700083824a000000a1000603e900f3ff3a0069
:10098000000006008000eb0010017800900190004c
:100990000000eb00a70037001000fa00889fbe009f
:1009a0008a9fbe008c9fbe0000067800cc0190009c
:1009b000c2002000110009008201d8000001780067
:1009c00040ff2f008090b9008301400002003b00ef
:1009d000ec8141000201e900dc0690000200e00029
:1009e00007003d0004002800020252000080eb00d6
:1009f0008080eb00848f560009003d006d003700b9
:100a00000200e00006003200f4ff2700020252005c
:100a10000080eb008080eb008d0f520065003500f8
:100a20008d064100830078000d0078006600070005
:100a30000000e9003c029000cfa2de00612bb9006b
:100a4000cf80de000404400085844800068548000d
:100a500087854800e8b79f00f9b79f008abf9f00cd
:100a60009bbf9f002c009000cf80de006109b90081
:100a700004e12000050020006033b800db08070017
:100a80000205be000004be001c009000cf80de0006
:100a90006109b900c4032000050020006033b800dc
:100aa000d20807000002440081824c0002034d007e
:100ab00083834d001c007800cf80de0004044000da
:100ac0008584480006854800878548006168b9002c
:100ad0006109b90004382300151e20006033b800f6
:100ae000c20807000002440081824c0002034d004e
:100af00083834d00a4b79f00b5b79f00c6b79f0082
:100b0000d7b79f0004182500150020006033b800f7
:100b10006fb09700ffb097000fb997009fb997008b
:100b2000b20807002fb29700bfb297004fb39700eb
:100b3000dfb397000004420081844a0002054b00a5
:100b400083854b000800be000a01be002a0807008a
:100b50006011b80026080700000178000080eb0053
:100b60008080eb000200e000120035000018280031
:100b700051c5270008044000898448008c08900073
:100b80000801be000c0078002a0007000c08900045
:100b90000000e00004003400001f2f00f1ff2f00d0
:100ba00008044000898448009a00070000005400af
:100bb00081805c004f06be004f05be004f04be00a2
:100bc0000080fa000000060080027800010378002f
:100bd0000500e000030034000501e9004291de0059
:100be000090037000001eb00e38f420006003d00e2
:100bf000e481120042002000110009008201d800a7
:100c0000000178000201e80063826200834721004e
:100c100004003a00034921000500e00001003a0009
:100c20008347210086004300818141001300410079
:100c300000000600ea874700889fbe008a9fbe002a
:100c40008c9fbe008e1f7800000478000ae8270001
:100c5000ab3a28000205450083854d00dab79f00b6
:100c6000ebb79f000800e00001003a00c8502100e7
:100c7000010c980002182500130020000a00be0095
:100c800030ff07000006be0061004000e080480021
:100c900072002000030020003c0807006004980058
:100ca000d2162000030020000c00be0016ff070033
:100cb0000001be000007eb008e0451008000eb0035
:100cc00009007800f2b79f0083bf9f00beff0700b6
:100cd00000027800d016200000c8b900cfa2de00c4
:100ce0000000420081804a000e07e8007fb19700b3
:100cf0008fb99700800f5600818f5e00eeff3500a0
:100d00000006560081865e00590498007c04980015
:100d1000638064008147210004003a0001492100fa
:100d20000900e00001003a0081472100f680400000
:100d3000c00020000000e9000101780021027800d5
:100d4000cfa2de00840f5600858f5e00f9ff3500cc
:100d5000400498000c06e800120656003c04980077
:100d600002182500130020000a00be001608070024
:100d70000005be0002e1200003002000f1fe070094
:100d80002004980002e12000030020000a00be00b9
:100d90000d0807000005be00c2032000030020006c
:100da000e8fe070010049800c203200003002000a2
:100db0000a00be0004080700000c78000808900034
:100dc0000000e00005003d00080078003401070045
:100dd000000c98000000e00007003c0008007800cc
:100de0004f0778004f06be004f05be004f04be00ff
:100df000af00b100000006000ae120000b00200057
:100e00005fb09700efb097000005450081854d0069
:100e100098ff37000400fa00889fbe0080a780007a
:100e20000000e00001003200000001006097800037
:100e300071a98000808f5000310032001004e00062
:100e400002003a00fd0007006097880066815700a5
:100e50002100200060978000cc010700000478008a
:100e6000a2002000e8805700080078003700070043
:100e700080a9880091a988004fb997000804510003
:100e80005fb99700820f540009003a00d2ae2f00dc
:100e9000f3ff2f00820f5000838f580004003500ad
:100ea00032512000820f5000e08f580003003400c0
:100eb0006000b80080a9880091a9880088a98000f6
:100ec00099a98000c2f92f00f3ff2f000800be008f
:100ed0008dfe07008202200003002000bd070700ee
:100ee0000004440081844c0060041400e0841c0071
:100ef00088a9880099a988006197800071a9880055
:100f000042fc2f00f3ff2f0080a9800091a98000f0
:100f1000b00707004f04be000080fa000000060082
:100f2000889fbe001004780090049000b9ff07006d
:100f30000001440081814c008080eb000000eb0048
:100f40003cff07004f04be0000000600e687470094
:100f5000889fbe008a9fbe008c9fbe008e1f7800b7
:100f600000057800010778000e00e00001003a005b
:100f7000728757008005eb006156b8000c8645006b
:100f8000e0864e008c0478001c4478000800fb00ca
:100f900082bf9f00620107008b05e8000fb9970030
:100fa0000000e000f4ff3a00d0c2b300804f5400cc
:100fb0000300320000c0e900804f540002003a00f4
:100fc0008c04e80001003700004478008e007800af
:100fd00009007800cf0207009e8f540001003a00fc
:100fe0000a0f78009e0f550003003a00e00f5000f2
:100ff000e08f58000f003a00b2c2b300824f540095
:1010000004003a00e00f5000e08f580015003d004a
:1010100008003700d2c2b300824f540011003a00da
:101020000200200003002800820f5000838f580028
:101030000a00360020022000f0a98800f0ff2f00ef
:10104000f1ff2700d2c2b300824f540005003a00de
:10105000000020000100280002003700600010009e
:10106000e08018004f0778004f06be004f05be0015
:101070004f04be006f00b10000000600e687470085
:10108000889fbe008a9fbe008c9fbe008e1f780086
:10109000000778000005eb00190020006176b80019
:1010a0000c044500984578000b00fb001201070076
:1010b0000000e000480032006148b900024e210003
:1010c0006112b800f4b79f0085bf9f008401400003
:1010d0008b4978000001410018447800484198008d
:1010e0000000460081804e00000478008904e8007a
:1010f0000a05e800e48f5400e8ff3a000006780093
:1011000010407800d1c2b300814f5000030032007c
:1011100081c0e900814f500002003a000c04e80051
:101120000100370001407800914e2100804878008e
:10113000984078000101fb000203b1000000eb00c1
:10114000e90f510025003e00a04e21000148780023
:1011500088047800d94078000101fb000203b10047
:101160000000eb00e90f51001c003e00b04e2100d2
:10117000014878005900fb00df0007000000e00094
:10118000100032005a0020006156b9000c004400e3
:10119000d0fd97000b00fb00d70007000000e00027
:1011a0000d003200ffb29700050046000b487800a2
:1011b0008884e9008c8444000a05e800e80f5500a3
:1011c000f1ff3a000000eb001904e00003003a00d0
:1011d000004e2100010037000000eb004f077800af
:1011e0004f06be004f05be004f04be006f00b100a9
:1011f00000000600204d2100b4fd0700e0a9880092
:101200000000e00007003a00b04d2100affd0700ec
:10121000e0a988000000e0000200320097ff07000c
:10122000e0a98800e0a980000000e00002003a0088
:10123000e04d2100e0a9880000000600881f78002a
:10124000a85321001804e00003003a00e9ff07005a
:1012500020c0b300004c7800e0a980004f04780063
:1012600000000600e0942000bb003700881f7800d3
:10127000885321001804e00003003a00f9ff07003a
:1012800020c0b300004c7800100020004f0478000c
:1012900000000600b0a98000ea003700fdff37001b
:1012a000f2874700889fbe008a9fbe008c9fbe00c9
:1012b0008e1f780000047800ecff070080a78000f4
:1012c0000000e000010032000000010050978000a3
:1012d000a1a98000808f50001b0032001004e000a4
:1012e0000e003a00609780001004e00002003a000f
:1012f000d2ff0700609788007e81570031002000f0
:1013000060978000a1000700509788001004e0005b
:1013100002003200a12e21008008e90050978000d1
:1013200076010700800478008085eb000900e0006a
:101330006a003200b0a98000c2000700b9a9880085
:1013400050978000a0a988008000eb005800900012
:101350001dfe07008004780078059000f855b9005c
:101360002800900000054500d8009000d01620000d
:101370000088b90061004000e08048004fc9de00ed
:10138000008044008100490072002000030020001a
:101390007e060700ee024000b4a980000001eb00c9
:1013a0008005eb00880178004600370064004700a4
:1013b0000c034000e0834e00a6b79f00b7b79f0024
:1013c00053009000860078009180fb00808f5000d1
:1013d0003b003c00e30047008c8040009180fb0014
:1013e000c2b79f00f3b79f00e4b79f00d5b79f0037
:1013f000f5fd07008e80e8008c8040009180fb00a6
:10140000898050008080400081bf9f001844780090
:101410004fb19700ffb197006fb29700dfb297000e
:101420000804e000120032008883fb00878352002a
:101430008183430076002000110009008603d80054
:10144000810378000003eb000700e0000100320098
:10145000678313008fbb97008683430087bf9f007d
:10146000e74f540002003e00e783530087bf9f0010
:101470008fb89700f808b9008e00e8008c80400013
:101480009180fb0001004000800f550013003500e3
:10149000690747000c0647002fb39700bfb39700ba
:1014a000164078009c4f500002003a000b00e0000c
:1014b000020032008005eb00010037001b00200015
:1014c0000201e8006516b800040778000c04420029
:1014d00080c3eb0098cf1300b4ff3a000b007800f4
:1014e0004f0778004f06be004f05be004f04be00f8
:1014f0002f01b100000006001004b1000700350004
:101500009001b100040034007000b1000300350008
:101510009001b10001003c00100005000000050032
:101520006900e100040035006d00e10003003400b3
:101530000002b100010032000000050010000500ab
:1015400000aa80000000e00001003200000001005d
:10155000e053210000000600010020000100e0002f
:1015600009003200010080000100e00006003200a6
:101570008100e900010088008180400002008000b5
:10158000810041008008780000000600889fbe00ae
:101590008a9fbe000004be000205780098457800ce
:1015a0000b04e000010032000804e8008b00fb009f
:1015b00008007800b20007000000e00003003a00d5
:1015c00008007800ba000700000044000900e000ad
:1015d00002003c00080d5000080037001004e00035
:1015e00003003a00000deb00000478000300370010
:1015f0008904e9000004e800ecff370008007800e7
:101600004f05be004f04be000000060080a780000a
:101610000000e0000100320000000100402c210029
:101620000000060080017800e42e2100022c210039
:10163000a1012000204f2100d2010700204f2100ee
:10164000000006000000e0002f003200c00178001a
:10165000e38f51002c0036000308a3002a003a0053
:1016600021aa80000100e00002003200810f50003a
:10167000040031001100980020aa880016003700ed
:1016800082007800110190000200e00002003200a8
:10169000800f5100faff3900110278008482400067
:1016a000850f500018003900808f520003003a0067
:1016b0008308420001007800070037000200e000c4
:1016c0000300320083014000830f51000e003900f7
:1016d0001200980090009800900090000100e00037
:1016e0000900320010014000828f500006003a00cd
:1016f000225421000009eb0010017800110841007c
:10170000910090001100980000000600889fbe0024
:101710000004780011aa80000100e00002003200fd
:10172000010078000d00370021aa800040542100fc
:1017300004003700910f5400250036000180e800b6
:10174000910090000100e000faff3a00100037001d
:10175000920f54001e0036000280e800100178004d
:101760000200e000faff3a001101780021aa80008f
:101770004054210004003700910f5400140036003b
:101780000180e80091009000828f5000faff3a003b
:1017900069aa8000888f5400010031008804780015
:1017a00009007800d10007000000e00004003a00c2
:1017b000888f5400050032008904d100f5ff3700fe
:1017c000091878009fff0700d2ff37000000eb00e8
:1017d0004f04be0000000600881f7800630440002c
:1017e0000800a1008000eb00800f540021003600ab
:1017f000e30f540001003e0048002000080078007c
:10180000c2ff07008000eb000000e000190032007a
:10181000900078009101780064815100880f510098
:101820000300310011019000020878000700370022
:10183000088140000208780091019000130198008f
:101840001001780011091400880878001001780050
:101850000000eb000200e000040032009201900062
:101860000300e000010032000280e80010aa8800b6
:101870008180e800010078004f0478000000060035
:10188000020037000304e000060032000001780087
:1018900002007800b041780081cf5100f9ff3a0092
:1018a000010037000001eb00020078000000060094
:1018b00080007800010178003104e000fdff3a006b
:1018c0000000510000000600000178000000eb005d
:1018d00002003700ea00b900008041008100e90001
:1018e00005003300b201fb000303b100e98f510092
:1018f000f8ff36000080eb0000000600e487470098
:10190000889fbe008a9fbe008c9fbe008e1f7800fd
:10191000904678000006eb000d04e0006c003200f9
:101920008004e80009007800280020000200370049
:101930000000e8000804e8008d00fb00d0ff07006d
:101940000000e000faff3a00e540b900a2ff0700fe
:10195000000578000a0678000a00e0005c0032000a
:101960000a0478008005eb0080c2b300994f100094
:101970000b003a000900e80041002000d2ff0700f8
:1019800041892f00810540004e003300d94090006e
:1019900090c2b30080cf50004a003a00e684440071
:1019a0008bf79f004b44980021002000090078002d
:1019b000c5ff07000040e90090f79f003044980001
:1019c0008984e8002100200009007800beff07009c
:1019d0000047e9002e4498008984e8001900fb00c4
:1019e0000003b100e90f500006003e002100200076
:1019f00009007800b4ff0700104498008984e800cb
:101a0000020037000040eb00104498001ff09700e0
:101a1000eb4f50002b003e0030c6b300804f570004
:101a200028003e009840900080cf500025003e00e6
:101a300019407800b1c2b300814f50000500320058
:101a400081c0e800814f500002003200004ceb00e2
:101a50000f0037009940900000cdb30000c0400057
:101a6000e64f500017003e0002c3b30082cf500083
:101a700001003a0070c0b300004c7800b1c2b3005e
:101a800099cf100001003a00674c40008984e800bb
:101a9000194078000004e00005003a0065044400a5
:101aa00000cceb000ff0970040449800080037008e
:101ab0008d4f500003003a00650444008904e8009b
:101ac000a9ff37000a007800defe07000006eb00e1
:101ad0000c0078004f0778004f06be004f05be008f
:101ae0004f04be004f00b1000000060080007800e7
:101af0000000eb000100e000050034000100780068
:101b00005efb0700e10f400001003a000000eb001f
:101b100000000600ee874700889fbe008a9fbe0037
:101b20008c9fbe008e1f7800f0b79f0001067800e2
:101b30008205780000047800080578000a0478001f
:101b4000b84678000d00fb0075fe07000000e000bd
:101b5000f9ff3a00d0c2b30080cf56000300320034
:101b600000c0e90080cf560002003a000a05e800f4
:101b700001003700804678000b00e00005003500ca
:101b8000e18f55000300320040022000808f550095
:101b9000060034006044b8000c00e000720032001f
:101ba0007fb09700000e7800480037000b00e0007f
:101bb0000e003200f08f55001a003a0000c3b30047
:101bc0009a4f100017003a001a40900081c7b300e6
:101bd000814f50000300320081c5b300814f500097
:101be00010003a000a85e8000e003700ab00200024
:101bf00000c3b3009a4f10000a003a001a40900048
:101c000081c7b300814f5000040032008b002000d8
:101c100081c5b300814f500002003a000a85e800f8
:101c20000b0120000a007800000278000400780010
:101c300001c3b300b0cf1000fbff320004077800ef
:101c40006044b800b4b79f000d003700e1422100a6
:101c500081405000c1ef9f006159b9000800be00eb
:101c60005c0407004fea97000401fb00cf91de00ff
:101c7000c8b79f00d9b79f00020440008384480082
:101c80008e0278003e00fb0085bf9f00a800070081
:101c90000b01780080007800e0422100c3030700b8
:101ca0008fba97000000e000e8ff3a003fb29700cb
:101cb000850f550007003a006044b8000c00e000b2
:101cc00029003200ffb29700050e78006044b8008a
:101cd0002500370004825200304521000b004000ef
:101ce0001000fb00000252001700330011003a0000
:101cf0004fe997000200fb00cf80de000000540097
:101d000081805c00800f5400818f5c0009003900e5
:101d10006159b90085bf9f000afb07008fba970081
:101d20004fb19700dfb19700820f5000838f5800aa
:101d30000500320020022000f0a988000084eb009a
:101d40008084eb0005003700d0c2b30080cf56007e
:101d500002003a0060041400e0841c000c00e00063
:101d600001003200050e78000800be004f07780021
:101d70004f06be004f05be004f04be00ef00b1008d
:101d8000000006008f02b000889fbe008a9fbe0040
:101d90008c9fbe008e1f7800000778000106780037
:101da0000204780083bf9f00f4b79f00080078000a
:101db000bffe0700800478008e0578000005eb0068
:101dc0004a0037000a05e9000a004500e1fc2f003f
:101dd000808040006f847800c002b100ef0478007a
:101de000184078008086fb008d06ea00cf6ede008a
:101df0000d0444008d84540051c2b300814f500043
:101e000002003a000900e00005003a008d0f56007c
:101e1000400039008d0054000d0178001f0037008c
:101e20009846780050c4b30080cf560003003200bb
:101e30006a40400080cf560002003a000804e800e3
:101e4000010037008046eb00a5fd2f008f82420085
:101e5000c4fc2f000f024200984178000d41780029
:101e6000ffb097000fb89700460107000d04e0008f
:101e7000010032008904e9000804e8008904e9004f
:101e8000efa697000d00e000090034008d0f56000a
:101e9000200039000d017800800078000b007800e8
:101ea0004c0307008d8545000d0656000f003700d6
:101eb0000900e0000b003200e20f550009003e006f
:101ec0008a00450088017800e2fc2f0001014100f2
:101ed0008337790009017800c102b10082b7780028
:101ee0000a05e8008d04ea00000478000900e0001b
:101ef000bbff3a000a00e000b2ff3a000000eb002e
:101f00000c00e00004003200804deb000e80550014
:101f1000010037000000eb004f0778004f06be00bd
:101f20004f05be004f04be008f02b1000000060046
:101f3000800078001104b100030035009101b10068
:101f400001003c000050a00000000600808050000e
:101f5000e780400067024100730020001100090083
:101f60008300d80001005200110009000300d800ce
:101f7000000006000200fa00889fbe008a9fbe0093
:101f80008004780081057800a2002000ea805700d4
:101f90000b007800edfb07003fbd970028002000f4
:101fa0008a8f5500330032009a457800f2c2b300a0
:101fb00082cf55002f003a00d9019000c276200050
:101fc00002814100cf91de00820f5000838f5800c4
:101fd00023003a000a05e800a2002000ea8057002a
:101fe0000a007800d9fb07000001be00bfb89700c7
:101ff000810f55001f00320091cf15001d003a00df
:10200000490290000402e800cfa2de00840f5100d4
:10201000858f59000500320018002000820f520001
:10202000838f5a0013003d00110037000100e800c3
:10203000a2002000ea805700c4fb07003fb99700c8
:10204000820f55000b00320039019000cf91de0065
:102050000004eb00820f5000838f5800050032000f
:1020600018002000800f5100818f590001003d00b1
:102070000084eb00080078004f05be004f04be004e
:102080000080fa000000060000000500889fbe00e6
:102090008a1f780080047800010478000801780025
:1020a0008900780010002000a8ff070000057800d4
:1020b000f5ff070000027800840154003917b000d2
:1020c0000884540072002000110009000204d800a6
:1020d00001047800d11620008880400084804000f0
:1020e000110009008200d800b0162000808f510036
:1020f00003003400e28f500003003a000f00370065
:10210000808f510003003a00e38f500004003a0032
:102110000a003700a0162000808f510002003a000c
:10212000e48f5000050032000884e900e20f5400fb
:1021300003003e000a05e800010037000085eb00bf
:102140000a0078004f0578004f04be00000006002a
:10215000881f780000047800010078008200780071
:10216000caff07000000e00002003a000804e9008e
:10217000030037000000e00001003c000804e80014
:10218000080078004f04780000000600889fbe0019
:102190008004780001047800880078000900780045
:1021a000baff07000000e00009003a00b6ff070090
:1021b000d11620000000e000010032008100e8009c
:1021c000e784440008805400b0ff07000300370094
:1021d0000000e00001003c00100020004f04be00a1
:1021e00000000600889fbe008a9fbe008004780021
:1021f0000204780003057800810578000b00e000f8
:1022000001003d008005eb00f0c4b300804f520098
:1022100006003a000a0178008b007800150078006b
:10222000dafc07001a00e00011003c00080d7800fd
:1022300088844400804ceb000001eb00070037006d
:1022400002025200a3002000110009008305d800fb
:1022500003c3b30003ca400080057800614ab80098
:10226000020052000201e80082005400f4ff3b002b
:102270004f05be004f04be00000006000200fa0039
:10228000889fbe008a9fbe008c1f780000057800e2
:10229000010678008004eb002c0037008805e80078
:1022a0006c815700110020000b007800b7fc07007c
:1022b000800078000a0078002eff07009840780020
:1022c000d2c2b30082cf500002003a000000e80002
:1022d00003003700b2c2b30082cf50001a003a00a8
:1022e000e10f500018003e006c81570021002000d3
:1022f0000b007800a5fc07009040780098cf5000b4
:1023000004003a0010419000a1c2b300814f510077
:1023100016003200800078000a00780015ff0700e0
:1023200098407800d2c2b30082cf5000040032003f
:10233000b2c2b30082cf500003003a000000e800b0
:10234000e10f5000090036008904e8006c81570055
:10235000890078001c0078008cfc070000047800dd
:102360001804e000cdff3a00884a210008007800f8
:102370004f0678004f05be004f04be000080fa00f3
:1023800000000600ec874700889fbe008a9fbe00c1
:102390008c9fbe008e1f78000005780081047800b5
:1023a0008245780004047800050678000300fb00ed
:1023b000cf80de005002b1000180b1005205200044
:1023c000820f5000e08f5800eb013e000006010034
:1023d000e5013700e8013700e7013700e601370083
:1023e000e5013700e4013700e3013700e20137007f
:1023f000e1013700e0013700df013700de0137007f
:10240000dd013700dc013700db013700da0137007e
:10241000d9013700d8013700d7013700d60137007e
:10242000d5013700d4013700d3013700d20137007e
:10243000d1013700d0013700cf013700ce0137007e
:102440003e00370045003700530037006d0037006d
:10245000c90137007e0037008c0037009600370036
:102460009c003700c4013700c3013700c2013700a8
:10247000ae003700c0013700bf013700be01370092
:10248000bd013700c5003700c8003700d200370053
:10249000df003700e2003700f2003700ff003700ae
:1024a0005d013700a4013700b3013700b2013700e6
:1024b000b1013700b0013700af013700ae0137007e
:1024c00019003700770037002a0037004600370030
:1024d00050003700a8013700610037007100370055
:1024e000a501370081003700a3013700a2013700a2
:1024f00086003700940037009f01370096003700b0
:102500009d0137009c0037009b013700ae0037006b
:10251000b500370098013700cb003700d6003700f0
:10252000e900370060013700ea0090008180400038
:10253000080178002900900005003700ea009000ab
:10254000818040008100e800080178003900900097
:102550000efc0700800678008d013700ca0090004d
:10256000818040008100e800080178006900900047
:10257000f7ff370050c4b30080cf550002003a0087
:102580005908900001003700090890000801780000
:102590008000eb00c900370050c4b30080cf550065
:1025a0000b003a0021022000898040000a007800d8
:1025b00032ff07000000e800080178003100200029
:1025c000f2fb0700800678001d04e00070013a006d
:1025d000da00900042062000110009008200d800b5
:1025e000f30040004b003700450220008982420082
:1025f0000b4278008801780022002000ba00900089
:102600001e01370080ff2f00000c7800bd4a21001a
:102610005f01370045022000898242000b427800aa
:102620008801780022002000ba0090000c00780099
:10263000ecfe07008006780000c3b3009c4f10003a
:1026400053013a0070405000004e780050013700ae
:1026500080ff2f00000c78004d4b21004c0137000b
:102660007a019000ea0090005a009000b8fe07003e
:1026700042062000110009000200d8000100e0001d
:1026800024003d0082804000220037007a01900043
:10269000ea0090005a009000adfe0700c1762000cd
:1026a000f0003700ca0090008180400008017800e7
:1026b00059009000a6ff37004502200089824200a1
:1026c0000b4278008801780022002000aa009000c8
:1026d000ea003700aa009000eb804000c200200012
:1026e000110009008200d80009003700fa009000ac
:1026f0008100e80045022000898242000b427800f8
:102700008801780032002000dc003700ca00900009
:102710008100e80045022000898242000b427800d7
:102720008801780022002000d400370045022000f4
:10273000898242000b427800880178002200200044
:102740009a009000cd00370010002000000c7800a7
:10275000dd4b21000e013700110020002a009000ff
:10276000eb0f500001003c008000eb0008017800f6
:102770001900780076ff370050c4b30080cf5500b1
:1027800002003a000910900001003700390890005b
:10279000080178003100200048003700b0ff2f000a
:1027a000000c7800fd4b2100f900370045022000a5
:1027b000898242000b4278008801780022002000c4
:1027c0009a007800ad00370010002000000c78005f
:1027d0005d4c2100ee00370080ff2f00000c7800d8
:1027e0007d4c2100ea003700ea0090000100e00083
:1027f00001003a0071002000450220008982420059
:102800000b42780088017800120020009b003700fe
:102810007a019000ea0090000000eb0014003700fd
:10282000fa0090006a00900058fe07004502200060
:10283000898242000b427800880178002200200043
:10284000800078008d003700450220008982420018
:102850000b4278008801780012002000ea00900006
:10286000860037007a019000ea00900010002000f6
:10287000b6fd0700edff370050c4b30080cf550010
:1028800002003a0069089000010037001908900022
:1028900008017800110020000800370050c4b30080
:1028a00080cf550002003a007908900001003700ff
:1028b00029089000080178002100200033fb070060
:1028c00080067800760037005a0790004206200004
:1028d000110009000207d800010778000e00e0008f
:1028e00001003d00020747002d00200050c4b30046
:1028f00080cf550041003a0021022000898040002d
:102900000a0078005dfe0700000278008d01420099
:102910001304e000390032005a039000c076200012
:1029200000034300cfb3de000405e800080178008f
:10293000110020000a007800e3b79f00d4b79f0081
:10294000f6b79f0087bf9f0010fb0700a200200082
:102950008000eb007df907007fb397008fbb9700e5
:102960000003530081835b00d0c2b3005fb29700c5
:10297000efb19700944f100002003a00600313007b
:10298000e0831b00a2002000f880570003007800bd
:10299000e3b79f00f6b79f0087bf9f006bf9070062
:1029a0000002be00cfb097002d002000efb19700cd
:1029b0007fb397008fbb9700818f51000f003200cb
:1029c000914078009acf50000c003a000400430078
:1029d00085804b00000778001d00200001003700b3
:1029e0008d06e800a200200003002000c6f70700c3
:1029f000e00f5000e08f5800f9ff3c004502200036
:102a0000898242000b427800880178000d0178002d
:102a10008e0078001900370050c4b30080cf5500f5
:102a20000e003a0021022000898040000a00780050
:102a300012fe07000000e8000801780041002000b5
:102a4000d2fa070080067800b0c3b3009d4f100093
:102a5000020032001800e0000b003a00da0090009b
:102a6000c07620008080400045022000898242001c
:102a70000b42780088017800420020000c007800aa
:102a8000d8fd0700b3fe3700b10320000d00780029
:102a90007bfb07000000e000010032000d0c50003d
:102aa000180cea003a003700491090001004e000ca
:102ab00001003a00e1f90700080178002100200038
:102ac000b2fa0700800678001800e00030003400f9
:102ad0000a0890000000e0002d003400a200200051
:102ae0008000eb000d00780018f907004106200077
:102af0008080400003003300b0c2b300004e780075
:102b000003003700d0c2b300004e78008100ea0015
:102b10000c00e80045022000898242000b42780048
:102b20008801780042002000aefd07008006e90021
:102b3000180ce800160037001b0020000a0890005f
:102b40000000e00001003c008005eb00491090000f
:102b50001004e00001003a00b8f90700080178000d
:102b60008b0078007afe370010002000000c7800ff
:102b70000d4d210006003700034e78000040eb00a9
:102b80001046980020002000000c78008c06780089
:102b90000d0078004f0778004f06be004f05be00bd
:102ba0004f04be00cf00b100000006000300370054
:102bb000b0cf1000050032000201e900800178006a
:102bc0000200e000faff3a00000005000300780070
:102bd000000006008001780002003700b15978003b
:102be0000201e9000200e000fcff3a0000000600dc
:102bf00014002000a6003700881f78000304780026
:102c00000300e00007003d0060001000e0801800b5
:102c100060011900e081190002003b0001f02d0065
:102c2000030037000400070008f0a70001f0a0002f
:102c30004f04780000000600889fbe008a9fbe00f7
:102c400000827000040271000482710026003200cc
:102c50000004be000200be006011b8006b09200035
:102c6000950220000182cf000a0039000541b10021
:102c70000082cf00070039000541b1000982cf0072
:102c8000040039000541b1000882cf00010039007d
:102c90000541b10005425200120032000a003b001b
:102ca00082817100610164008100d1000080d30045
:102cb0008984d3000884d3008b05e8000442e8002f
:102cc000f7ff3a00070037000804440089844c00ed
:102cd00000004800818048008b05e9000442e900bb
:102ce000f9ff3a00030007004f05be004f04be0085
:102cf0000000060081002000618055000b003d00af
:102d00000b00200061fe2f000100e1001d003400d7
:102d100082817100610164008904d1000884d300bc
:102d20000000e800faff3a00710020006100640032
:102d300003007000020060000900320061044400da
:102d4000e0844c000988a500050032008b05e800ee
:102d50006808e10002003a008904d1000884d30029
:102d6000f20f20000258e10005003d00c75ddd00c4
:102d7000f907b2008980750008007800000006009d
:102d80000bf827008b00780000000500811f7800f9
:102d90000100e00002003d0060001000e08018002b
:102da0000300e00002003d0060011100e081190015
:102db000050007004f00e00002003b00600010002b
:102dc000e080180000000600def607000400be00e8
:102dd00000000600020ab900001bb9000200b8009a
:102de000810042008100430000000600889fbe0071
:102df0008a9fbe008c1f78000006eb00e00f500099
:102e0000e08f5800e00f5900e08f590007003d00a7
:102e10006044b8006055b8000000540081805c0038
:102e200002015d0083815d001c002000e00f520064
:102e3000e08f5a00e00f5b00e08f5b0007003d0071
:102e40006044b8006055b8000402540085825c00fc
:102e500006035d0087835d000c00a2002f000700c1
:102e60000c00e000060032006022b8006033b800b9
:102e70000000520081805a0002015b0083815b00e8
:102e80004f0678004f05be004f04be00000006004c
:102e9000889fbe008a9fbe00841f7800170007002d
:102ea0004f00780011003300f0ff2f00838f6c007b
:102eb00006003b00040565000a00a7000800370073
:102ec00009f0a6001000200008003700820f54000f
:102ed000838f5c00030039001000200001003e00d9
:102ee0000000200009f0a7000000ea004f05be0026
:102ef0004f04be000000e000000006000004be0019
:102f0000280007000003be000405be000200be004a
:102f100024000700844f750000000600889fbe0053
:102f20008a9fbe008c9fbe000404b8000506b8004e
:102f30008904460060854e000606b8000a05460072
:102f4000e0854e000706b8008b054600040eb80069
:102f5000890446000a854e00e0854d00050eb80044
:102f60000a0546008b854e00060eb8008b0546000c
:102f70000416b8000a0546008b854e000516b800f9
:102f80008b054600041eb8008b0546000800be00f5
:102f90000a01be004f06be004f05be004f04be0032
:102fa00000000600c70ade00f107b200f50fb2000c
:102fb00008003200e1cf4200020032000170a000a0
:102fc00024000500810f7000010032000408050094
:102fd00044000500810f700002003a001400050053
:102fe0008502e9000000400081c04800fcff3b0072
:082ff0000170a000240005009f
:020000040000fa
:102ff8000000fa002023a8000080fa000000060064
:103008000000fa002023a9000080fa000000060052
:103018000000fa00020e070000682900810920005c
:103028002f0e07000830ef001200370020708000d4
:103038000000d100614060000004a200614060000f
:103048000080fb00610060000000400021708000eb
:103058000110a1000100700020708800009020007d
:10306800d10320001e0e0700408080000000e80009
:103078004080880040808000e40f5000ebff36005d
:10308800c3c0b30062c1b300e15121003052210036
:103098003506070001070700d5ff0700d8ff07001e
:1030a8008040eb00d0c2b300350a07002500370086
:1030b80002d0bf000080fb00e20f50001300320076
:1030c800e30f500014003200e10f500015003a00e1
:1030d8000270ef00c1c0b300702921001707070074
:1030e800004c2d0011002000fd0d07007029210063
:1030f800104078000004e0000f0032007029210021
:1031080010407800350007000e0037000270ef000d
:10311800e20607000b003700e00607000270ef0028
:10312800080037003fd0bf000004e0000400320070
:1031380060020700030037000000000001003700ac
:10314800000000004cd0bf000004e000d8ff3a00a7
:103158000000eb000080fa00000006000800fa00fa
:103168000e00780071070700302a210031c0b30033
:10317800014878009e407800402a210001487800e4
:103188009e409000502a210001487800ae409000ef
:10319800602a210001487800ce409000702a210062
:1031a80001487800de409000802a2100014878001c
:1031b800ee409000902a210001487800be4090001f
:1031c800a02a210001487800c1c0b300302a21009c
:1031d800820607000080fa00000006000200fa00dc
:1031e800004f78001e80fb00e30f500019003200ea
:1031f800e30f500005003c00e10f500008003200ca
:10320800e20f50000800320027003700e40f50009a
:1032180013003200e50f50001b0032002200370077
:103228002300070020003700600221002a01070060
:10323800600221006d010700302a210011c0b3008f
:1032480001487800c1c0b300302a21006306070096
:103258001500370010c0b30014f0b7001200370093
:1032680010c0b3000ff0b700bc010700302a2100de
:1032780061c0b30001487800c1c0b300302a210002
:1032880056060700080037001470ef00302a2100a6
:1032980051c0b30001487800c1c0b300302a2100f2
:1032a8004e060700000000000080fa00000006003b
:1032b8001800fa000182800030062000808f50003c
:1032c80053003c00102a210010407800e14f5000c4
:1032d8000f003a00e0022100ff000700e002210091
:1032e800a300070010818800218188006003210065
:1032f8007e020700302a210021c0b300014878006f
:10330800c1c0b300302a21003406070096003700f8
:10331800102a210010407800e24f500092003a0035
:10332800e0022100ec000700e0022100bf000700d6
:10333800f08088000181880012818000238180004c
:10334800f0808000018180000000510081805900d8
:103358004f09de008001eb00020040008380480036
:103368008180d1000080d300400798005107980061
:103378001281800023818000f0808000018180001c
:1033880002004000838048004f09de008001eb0006
:1033980002004000838048008180d1000080d30073
:1033a8006007980071079800d2808000e380800051
:1033b8004e009000de00900002004000838048002c
:1033c800d0808800e1808800b2808000c3808000bf
:1033d8006e009000fe0090000200400083804800cc
:1033e800b0808800c1808800302a210011c0b30055
:1033f80001487800c1c0b300302a2100f705070052
:10340800008280000000e800008288005600370033
:10341800d0808000e1808000420620000300200068
:1034280037f50700008fbe00b0808000c1808000a3
:10343800420620000300200031f50700200798000d
:10344800310798006000b8006011b800000f9800bc
:10345800110f9800220f9800330f98001e00780073
:103468009e009000e00f5000e08f580005003d00de
:103478001e0078009e00900060001000e080180098
:10348800008fbe002e009000be009000e00f50009c
:10349800e08f580006003d002e009000be0090000e
:1034a80060001000e080180020079800310798009d
:1034b800700047000d0207002e009000be0090002b
:1034c8003e014000ae8148002e089000be089000e2
:1034d8000200400083804800200f9800310f9800b8
:1034e8002e099000be09900000a02c00a1b923006d
:1034f800800f5100818f59000e0034002e09900072
:10350800be0990000060230051462c0002004000d4
:1035180083804800200f9800310f98000e08900013
:103528009e08900061004000e0804800000f98006d
:10353800110f980070004700ac00070007ff070054
:103548004030ef001a30ef001c30ef001630ef006b
:103558001830ef006000b800008fbe006000b800af
:1035680020079800310798000080fa000000060044
:103578000a00fa00400798006000b8006011b8001f
:10358800009fbe000297be000e007800d70107001a
:103598001e0078009e00900002a02c008289b900cd
:1035a800a3b923008382b900840178000301410094
:1035b80003a02c000300b80001014100820078003c
:1035c8002e019000be019000000241008182490056
:1035d8004e009000900090001000780002602300d8
:1035e8008289b90053462c008383b900860178008c
:1035f80003014100036023000300b80001014100fa
:10360800820078004e019000640141009201900010
:103618001201780002005000838058000400400026
:10362800858048000080fa00000006000200fa00c9
:10363800000f78001e0078009000900010007800bd
:1036480002a02c008289b900a3b923008382b900a3
:10365800840178000301410003a02c000300b80096
:1036680001014100820078001e03780064014300d4
:103678009201900012017800000241008182490005
:103688006003210090009000100078000260230081
:103698008289b90053462c008383b90086017800db
:1036a80003014100036023000300b8000101410049
:1036b8008200780062032100b2019000220190008c
:1036c80002005000838058000400400085804800b4
:1036d8000080fa00000006000200fa00000f7800df
:1036e800b0292100104078000080fb008000eb002a
:1036f800c801dd0002002000a02921001040780048
:103708000080fb008000eb00c000dd00000020000e
:10371800000171008181710090292100104078001a
:103728000082fb008002eb004828dd00c820de0094
:10373800810070004820dd00000171008181710066
:1037480080292100104078000080fb008000eb00f9
:1037580000007100818071001e0178000089be00a0
:103768009e00780064834000f02921001040780012
:103778000080fb008000eb00c801dd000200200093
:10378800e0292100104078000080fb008000eb0059
:10379800c000dd000000200000017100818171007f
:1037a800d0292100104078000082fb008002eb0045
:1037b8004828dd00c820de00810070004820dd00b8
:1037c8000001710081817100c0292100104078003a
:1037d8000080fb008000eb00000071008180710018
:1037e800008bbe000080fa00000006001800fa00f6
:1037f800300f98003e0890006400400010017800e7
:103808009001900000a02c00a1b92300800f510066
:10381800818f5900120034003e0890006402400075
:103828003e0890006400400010017800900190006c
:103838000060230051462c000200400083804800ad
:10384800008abe003e0890009000900010007800aa
:1038580061004000e08048003e0990000089be00f9
:103868003e089000900090001000780050079800e3
:10387800610798006a00470040f40700000f7800cd
:103888001e0078001000780000407800604f980013
:103898001e0078001000900000407800704f9800db
:1038a8001e00780020009000004078000057980023
:1038b8001e00780060009000004078000040e8009a
:1038c800105798001e0078003000900000407800e3
:1038d800205798001e0078004000900000407800b3
:1038e8000040e800305798001e0078005000900013
:1038f80080407800c0c9b30000c04000405798001d
:103908007e0090008e0890001e099000ae0990007d
:10391800400607003e0890006400400090009000b8
:103928001000780010079800210798001e009000ea
:10393800ae0090009201200003002000fff3070072
:1039480030079800410798003e009000ce00900094
:10395800cd0807000080fa00000006000e00fa00fb
:103968000e80e8005cff07001e009000ae0090008b
:1039780050079800610798006a004700fff30700a6
:10398800000f78001e007800100078008040780052
:10399800002a21001040780080c04000c02b210080
:1039a800014878001e0078001000900080407800e0
:1039b800d02b210001487800d02b2100104078003e
:1039c8000040e80011f0b700110121009140780093
:1039d800b0c3b30080cf50000500360011012100ac
:1039e8009140780050ccb30000c0400011f0b700ff
:1039f800d02b210090407800102a21001040780038
:103a080080c04000d02b2100014878001e007800bb
:103a18002000900080407800202a21001040780083
:103a280080c04000e02b210001487800c02b210015
:103a380090407800b0c3b30080cf50000b00360030
:103a4800d02b2100104078008040e800d02b2100c6
:103a580001487800c02b21009040780050ccb3007a
:103a680080c04000c02b210001487800d02b2100e5
:103a780090407800b0c3b30080cf50000b003600f0
:103a8800e02b2100104078008040e800e02b210066
:103a980001487800d02b21009040780050ccb3002a
:103aa80080c04000d02b2100014878000080fa0037
:103ab800000006000e00fa000040eb00004f7800fe
:103ac8006000b800100798002107980003d0bf00d5
:103ad8000004e000830032003d030700e1cdb3009d
:103ae800814f50007e003a0004d0bf00e14f5000e3
:103af8004c003a000100210091407800a0cab300b0
:103b080080cf500047003a006a0807001007980065
:103b180021079800660047000405070011002100ee
:103b2800914078008005210001487800ee4090001f
:103b38009005210001487800fe409000a005210072
:103b4800014878008e489000b005210001487800af
:103b58009e489000c005210001487800ae489000ba
:103b6800d005210001487800be489000e0052100fa
:103b780001487800ce489000f005210001487800ff
:103b88001e0090008040780000062100014878005f
:103b98001e009000ae0090004809dd004800de00dd
:103ba80000007100c808de0080407800100621007f
:103bb800014878001e009000ae0090004008de002a
:103bc8008040780020062100014878001e009000ff
:103bd800ae0090004808de008040780030062100e2
:103be8000148780040828000518280000001be00b8
:103bf800800521000f02070010f0b70010d0bf00a9
:103c0800f64f500007003a00408280005182800041
:103c180061004000e08048004082880051828800ae
:103c28000470ef000100210091407800a0cab300a1
:103c380080cf50002b003a000040eb00004f780086
:103c480021003700408080009e80fb0082252100f3
:103c58008100410091407800820521000000410068
:103c68000148780041808000f01f2000808f5000bc
:103c780004003e00408080000000e800408088008a
:103c88001000370040828000518280000001be0091
:103c980080052100e701070010f0b70010d0bf0031
:103ca800f64f500007003a000830ef0040828000cd
:103cb8005182800061004000e08048004082880016
:103cc800518288001e4fe800e0c3b3009e40780090
:103cd80080cf5000dbff36000370ef000100370093
:103ce800340007000080fa00000006002000fa00f7
:103cf800881f7800700f9800640047008b04070045
:103d08004e4090000080fb00600798005e409000e5
:103d18000080fb00700798006e4090000080fb0058
:103d2800000f98007e4090000080fb000000e90032
:103d3800400f98000e4890000080fb00100f98007c
:103d48001e4890000080fb000000e900200f98004a
:103d58002e4890000080fb004006b000300f98000d
:103d68006c0047000af30700008fbe007e08900031
:103d78003e1878002e1078007e08900064044000f9
:103d8800cc070700f909b900e002b90084017800fe
:103d980003014100930120000300b8000101410024
:103da80082007800008cbe004f0478000080fa0082
:103db800000006000800fa000040eb0020479800c9
:103dc800a00207000040eb00dd0907000000eb003f
:103dd800000f78000300370000c0eb00ff09070060
:103de8001e0fe800f00420009e007800808f50002d
:103df800f9ff3600890207000000eb00000f780089
:103e080010003700a1c4b3006011b8000040eb00f7
:103e180030020700de010700204798002e4090007e
:103e2800e14f50000c003200f07c20009e0078002a
:103e3800808f500002003a0000c1b3000301370030
:103e48001e0fe800f07c20009e007800808f500054
:103e5800ecff3600010037000000000042020700b6
:103e68000004e00002003a0010c1b300f700370078
:103e780031c4b300a21a20000300200080c0b300a0
:103e880014020700c2010700204798002e40900046
:103e9800e14f50001d0032000000eb00000f7800d9
:103ea80015003700300207000004e00002003a0065
:103eb80010c1b300e5003700c1c7b3006011b800f6
:103ec80010c0b30003020700b101070020479800a3
:103ed8002e4090000004e0009c003200f07c20009e
:103ee8009e007800808f500002003a0020c1b30085
:103ef800d60037001e0fe800f07c20009e007800f6
:103f0800808f5000e7ff3600930037002e40900066
:103f1800e14f50008b003a00ba01070020079800d3
:103f2800310798002e00900020479800ae4090007e
:103f3800a0cab30080cf50000200320030c1b300e5
:103f4800c20037002e019000be01900000f0200052
:103f58000100200002027800030178008001780047
:103f68000100780003026200000061008000eb009d
:103f7800c000dd00000020000001be006120b80084
:103f88000001710081817100481add004810de00cf
:103f980000007200c818de00204798002e409000ec
:103fa800e14f50000200320040c1b300a7003700c3
:103fb800ed0107000004e00002003a0010c1b30060
:103fc800a2003700e1c7b3006011b800a0c3b30076
:103fd800c00107006e010700204798002e4090009e
:103fe800e14f5000020032002e4090009700370049
:103ff8008401070020079800310798002e019000df
:10400800be01900000002800f10f20000202780095
:104018000301780080017800010078000302620043
:10402800000061008000eb00c000dd0000002000ff
:104038000001be006120b80000017100818171009b
:1040480000002800f10f2000800f5100818f5900d7
:104058000200320040c1b3007c003700c2010700f3
:104068000004e00002003a0010c1b30077003700f6
:1040780011c4b3001200200003002000b0c3b30035
:104088009401070042010700204798002e40900045
:10409800e14f5000020032002e4090006b003700c4
:1040a8000000eb00000f780021003700ae01070088
:1040b8000004e00002003a0010c1b30063003700ba
:1040c80021c3b3006011b80070c3b30081010700b9
:1040d8002f01070020479800a30107000004e00013
:1040e80002003a0010c1b30058003700b1c3b30052
:1040f800020020000300240090c2b30075010700ed
:1041080023010700204798002e4090000004e0009b
:1041180010003200f07c20009e007800808f500054
:1041280002003a0020c1b300480037001e0fe80023
:10413800f07c20009e007800808f5000dbff360066
:10414800050037002e4090004000370000000000b6
:104158000100370000000000830107000004e000b0
:1041680002003a0010c1b3003800370081c4b30020
:104178006011b800b0c3b30056010700040107007e
:10418800204798002e4090000004e0000200320012
:104198002e4090002d003700730107000004e00056
:1041a80002003a0010c1b30028003700a1c0b300d4
:1041b800022020000300200000c1b30045010700d1
:1041c800f3000700204798002e4090000004e0000c
:1041d800020032002e4090001c00370062010700e8
:1041e8000004e00002003a0010c1b30017003700d5
:1041f800e1c7b3006011b800a0c3b30035010700e0
:10420800e3000700204798002e4090000004e000db
:10421800020032002e4090000c003700f900070021
:1042280020079800310798002e009000be009000eb
:104238004e08de000040780050f0b700810107000a
:1042480010c0b300be080700a0cab3000080fa007f
:10425800000006000400fa00204798002e40900055
:104268000004e00002003a0010c0b30020479800a4
:104278000040eb00004f78000b003700cdfe070030
:10428800104798009e409000a0cab30080cf50000d
:104298000a0032006b01070000a82100610020001d
:1042a8008f0907001e4fe8002e4090009e407800be
:1042b80080cf5000f1ff39000100370000000000f6
:1042c8001e4090000080fa00000006000800fa0076
:1042d800881f780020079800310798000000eb003d
:1042e800000f78000d00370000c0eb00bb08070086
:1042f800204798002e409000e24f40000c0032000a
:10430800f07c20009e007800808f500002003a0068
:1043180050c1b3001b0037001e0fe800f07c2000de
:104328009e007800808f5000efff360001003700b4
:10433800000000000000eb00000f780006003700c6
:104348002e0090001e04400000c0eb00a3080700e8
:10435800004c78001e0fe8003e0090009e00780098
:10436800808f5000f6ff390000c0eb009b08070063
:104378002047980000c0eb009808070020479800e5
:104388000040eb004f0478000080fa0000000600af
:104398000800fa00100798002207980033079800d1
:1043a8001e01070050d0bf00e24f500008003a003d
:1043b8002e019000be0190004918dd00c710de00f4
:1043c800810070004910dd0020079800310798002f
:1043d800e50007000004e00002003a0010c1b30045
:1043e8001200370080c0eb002e019000be01900043
:1043f80010c1b300b700070065000700004f780040
:104408001e4078000004e000020032001e407800e0
:1044180006003700012020001e009000abff0700b7
:10442800004f7800070107001e4078000080fa005e
:10443800000006000a00fa002007980032079800da
:1044480043079800f500070050d0bf00e24f500026
:1044580008003a003e019000ce0190004918dd00a6
:10446800c710de00810070004910dd003007980099
:1044780041079800bc0007000004e00002003a0071
:1044880010c1b3004000370080c0eb003e0190002f
:10449800ce01900080c1b3008e0007003c000700e9
:1044a800204798002e4090000004e00002003200ef
:1044b8002e40900034003700e0cfb30047080700d3
:1044c800204798000000eb00000f78000600370036
:1044d8002e0090001e004000104078003f080700a2
:1044e800204798001e0fe800f01f20009e0078006b
:1044f800808f5000f6ff360000c0eb003708070039
:104508002047980000c0eb003408070020479800b7
:1045180000c0eb0031080700204798002e409000ab
:104528000080fb006e0060000080d10020479800ea
:104538008d0007000004e00002003a0010c1b3003b
:1045480011003700bf0007002e409000e24f5000d6
:1045580002003a0060c1b3000b0037002e40900003
:10456800e54f500002003a0070c1b3000600370062
:104578002e409000e64f500002003a0080c1b30080
:1045880001003700a0c0b3000080fa000000060058
:104598000200fa0000c0eb0010080700004f780086
:1045a80000c0eb000d080700004f78001e4078009f
:1045b8000080fa00000006000400fa0000c0eb00ca
:1045c80006080700004f780000c0eb00030807004a
:1045d8000080fb001007980000c0eb00ff070700f1
:1045e800004f78001e009000c800dd001e80fb0010
:1045f80001007000100798001e0090000080fa006b
:10460800000006000600fa0000c0eb00f3070700f0
:104618000080fb008000eb00008fbe0000c0eb00b4
:10462800ee070700404798001e0078009e009000a3
:104638004809dd00c801de00830171004801dd0082
:104648004e4090000080fb008000eb00001f7100ce
:104658000197710000c0eb00e00707004047980091
:104668001e0078009e0090004809dd00c801de00a9
:10467800830171004801dd004e4090000080fb007e
:104688008000eb00001f71000197710000c0eb0073
:10469800d2070700404798001e0078009e0090004f
:1046a8004809dd00c801de00830171004801dd0012
:1046b8004e4090000080fb008000eb00001f71005e
:1046c800019771001e0078009e0090000080fa009b
:1046d800000006000800fa00004f78001207980052
:1046e80023079800614798001e64a0001e407800c8
:1046f800ba0707001e009000ae0090004808de00d0
:1047080000407800b50707001e009000ae0090003a
:104718004008de0000407800b00707001e00900047
:10472800ae0090004809dd004800de00000071007e
:10473800c808de0000407800a80707001e009000a7
:1047480000407800a50707006e4090000080fb003d
:1047580000004000004078000004a0009f07070008
:104768000080fa00000006000400fa000000eb00d8
:10477800000f78000d00370000c0eb009707070016
:10478800204798002e409000e14f40000c00320076
:10479800f07c20009e007800808f500002003a00d4
:1047a8000040eb00080037001e0fe800f07c2000f6
:1047b8009e007800808f5000efff36000100370020
:1047c800000000002e4090000080fa000000060063
:1047d8000000fa001100070000fa20000100200084
:1047e8003f0807001700070000fa2000010020001a
:1047f8003b0807009070800061006000004078006e
:104808000004e00002003200e0cdb30001003700f0
:104818000040eb000080fa00000006000000fa00eb
:10482800807080000000a10080708800a070800067
:104838000000a100a0708800000000000080fa00bd
:10484800000006000000fa00807080000000a00050
:1048580080708800000000000080fa000000060058
:104868000000fa00207080000010a000207088006e
:104878000080fa00000006000000fa0020708000a6
:104888000010a100207088000080fa0000000600d7
:104898000000fa0011aea90015aea80011eea9009b
:1048a80015eea90000902000d10320000c08070095
:1048b8000080fa00000006000200fa00004f7800ad
:1048c80015aea9001e4078004407070015aea800e1
:1048d8000080fa00000006000400fa002047980053
:1048e80015aea9002e4090003c0707000040eb00e1
:1048f8003a070700004f780015aea8001e40780060
:104908000080fa00000006000800fa00204798001e
:10491800210798006247980015aea9002e40900024
:104928000054a0002d0707000040eb00004f78005e
:10493800060037001e80fb00ae009000008040009b
:1049480010407800250707001e4fe8006e409000d1
:104958009e40780080cf5000f6ff390015aea800c1
:104968000080fa00000006001000fa0050079800c6
:1049780061079800624f9800734f980015eea900e0
:104988000e0078008040eb00014878001e40780057
:104998000004a000004f78000e00780012c0b30099
:1049a8008000780010c0b300d7ff07000e00e800b1
:1049b8008040eb00014878001e4090000004a000f1
:1049c800104798000e00e80012c0b300800078007d
:1049d80020c0b300ccff07000e80e8008040eb0049
:1049e800014878002e4090003040b30020479800de
:1049f8000e80e80012c0b3008000780030c0b30019
:104a0800c1ff0700630047008040eb0001487800c1
:104a1800be40900000cfb30000c060000014a000aa
:104a2800304798003e4090006f4060000044a0006e
:104a3800304798006300470012c0b3008000780038
:104a480040c0b300b0ff0700640047008040eb009f
:104a5800014878006e4890000074a1000074a1001d
:104a68004e41900001c8b3008140610000c0700051
:104a7800404798006400470012c0b30080007800e7
:104a880050c0b300a0ff0700650047008040eb005e
:104a9800014878005e4090006040b300504798009d
:104aa8005e4090000034a000504798006500470021
:104ab80012c0b3008000780060c0b30092ff070006
:104ac80052c0b300ee009000a0c0b3008eff0700f4
:104ad80052c0b300de00900000c1b3008aff070097
:104ae800660047008040eb00014878007e4890004f
:104af800f043b200f043b2006e41900001ccb30025
:104b08008140610000c0700060479800660047005f
:104b180012c0b3008000780010c1b3007aff07000c
:104b2800670047008040eb00014878007e40900015
:104b38000064a000704798007e4090000054a000d8
:104b4800704798007e4090000044a000704798008d
:104b58006700470012c0b3008000780070c0b3003f
:104b680069ff070020ceb30053ff070010ceb30043
:104b780051ff0700680047008040eb0001487800bb
:104b88000e4890000014a000004f98000e489000b6
:104b98000004a000004f98000e4890000024a000d8
:104ba800004f98000e4890000034a000004f980075
:104bb8006800470012c0b300800078000040eb0096
:104bc80051ff070000d420003100200044070700ef
:104bd80015eea8000080fa00000006000600fa00a2
:104be800100798004147980015eea90015aea900d6
:104bf80000cab300790607000040eb00004f7800b8
:104c0800060037001e80fb009e00900000804000d8
:104c180010407800710607001e4fe8004e409000d3
:104c28009e40780080cf5000f6ff390015aea800ee
:104c38000e00e8008040eb00014878001e4090001c
:104c48000004a100104798001e4090000014a00026
:104c5800104798001e4090000024a00010479800bc
:104c68001e4090000034a000104798000e00e80095
:104c780012c0b300800078000040eb0022ff07005c
:104c880015eea800001e20000100200014070700f0
:104c980015eea9000080fa00000006000200fa00e4
:104ca80015eea9000e0078008040eb00014878005e
:104cb8001e4078000004a000004f78001e407800d5
:104cc8000014a000004f78001e4078000024a000c7
:104cd800004f78001e4078000034a000004f780094
:104ce8000e00780012c0b300800078000040eb008e
:104cf80005ff070015eea80000f4210001002000c0
:104d0800f70607000080fa00000006000200fa001b
:104d1800881f78000004780070c0b300eefe07001a
:104d2800004f78000e007800104c780008007800da
:104d38004f0478000080fa00000006000600fa0020
:104d4800100798004147980015aea90010c6b30097
:104d5800220607000040eb00004f780008003700eb
:104d68000040eb001d0607009e0090008048780078
:104d78001e0090000000e800100798001e4fe80091
:104d88004e4090009e40780080cf5000f4ff3900dc
:104d980015aea80020ceb300c7fe07000080fa00b9
:104da800000006000200fa000040eb00004f780007
:104db8000e00e800d5ff07001e4090000044b20036
:104dc8000004e0000300320010c0b300004f780078
:104dd8000d0037001e4090000042b2000004e000c1
:104de8000300320020c0b300004f780006003700ef
:104df8001e409000704060000004e0000200320095
:104e080030c0b300004f78001e4078000080fa00e0
:104e1800000006000200fa000e0078008040eb0057
:104e2800014878001e4078000064a000004f780018
:104e38001e4078000054a000004f78001e40780003
:104e48000044a000004f78000e00780012c0b300a4
:104e58008000780070c0b300abfe07000080fa0045
:104e6800000006000200fa0010ceb30092fe070010
:104e780010ceb30090fe070015eea9000e007800d2
:104e88008040eb00014878001e4078000014a10023
:104e9800004f78001e4078000024a000004f7800e2
:104ea8001e4078000034a000004f78000e00780003
:104eb80012c0b300800078000040eb0092fe0700ab
:104ec8000080fa00000006000200fa000e007800d8
:104ed8008040eb00014878001e4078000024a100c3
:104ee800004f78001e4078000064a000004f780052
:104ef8001e4078000034a100004f78001e40780062
:104f08000034a100004f780012cea900e0c8b30019
:104f18002e0607000e007800104078002b060700c8
:104f280012cea8000080fa00000006000200fa0075
:104f3800000f780012cea9000040eb0023060700fe
:104f48000040eb00210607009e00780080487800aa
:104f58000040eb001d0607009e0078009040980076
:104f68000040eb00190607009e007800a04098005a
:104f78000040eb00150607009e007800b04098003e
:104f88000040eb00110607009e007800c040980022
:104f98000040eb000d0607009e007800d040980006
:104fa8000040eb00090607009e007800e0409800ea
:104fb80012cea8001e007800104078000080fb0088
:104fc8004400de0000407800ea00b9008040780024
:104fd8001e007800104078006f40600080c04000dc
:104fe8001e007800014878001e00780010409000ec
:104ff8000080fb004400de0000407800ea00b900b1
:10500800804078001e007800104090006f406000db
:1050180080c040001e007800114098001e007800f3
:10502800204090000080fb004400de000040780033
:10503800ea00b900804078001e0078002040900007
:105048006f40600080c040001e007800214098003a
:105058001e007800304090000080fb004400de0015
:1050680000407800ea00b900804078001e0078000f
:10507800304090006f40600080c040001e00780003
:10508800314098001e007800404090000080fb00ee
:105098004400de0000407800ea00b9008040780053
:1050a8001e007800404090006f40600080c04000c3
:1050b8001e007800414098001e0078005040900083
:1050c8000080fb004400de0000407800ea00b900e0
:1050d800804078001e007800504090006f406000cb
:1050e80080c040001e007800514098001e007800e3
:1050f800604090000080fb004400de000040780023
:10510800ea00b900804078001e00780060409000f6
:105118006f40600080c040001e0078006140980029
:105128000080fa00000006000200fa00000f780074
:1051380012cea9000040eb00a40507000040eb00d8
:10514800a20507009e007800804878000040eb0028
:105158009e0507009e007800904098000040eb00f4
:105168009a0507009e007800a040980012cea8007b
:105178001e007800104078000080fb004400de002c
:1051880000407800ea00b900804078001e007800ee
:10519800104078006f40600080c040001e0078001a
:1051a800014878001e007800104090000080fb0045
:1051b8004400de0000407800ea00b9008040780032
:1051c8001e007800104090006f40600080c04000d2
:1051d8001e007800114098001e00780020409000c2
:1051e8000080fb004400de0000407800ea00b900bf
:1051f800804078001e007800204090006f406000da
:1052080080c040001e007800214098000080fa000d
:10521800000006000800fa00000f78001107980047
:1052280022079800330798001e4078000081fb0091
:10523800d0cc2c000010b8004308de00ea00b9000a
:105248000000510000407800004178001e407800be
:105258008080fb00d0cc2c000008b8004308de009a
:10526800004078000080fb004400dd00004078002a
:1052780000407100004f78001e4090000081fb0044
:10528800d0cc2c000010b8004308de00ea00b900ba
:105298000000510000407800004178001e40900056
:1052a8008080fb00d0cc2c000008b8004308de004a
:1052b800004078000080fb004400dd0000407800da
:1052c80000407100104798002e4090000081fb00bc
:1052d800d0cc2c000010b8004308de00ea00b9006a
:1052e8000000510000407800004178002e409000f6
:1052f8008080fb00d0cc2c000008b8004308de00fa
:10530800004078000080fb004400dd000040780089
:1053180000407100204798003e4090000081fb004b
:10532800d0cc2c000010b8004308de00ea00b90019
:105338000000510000407800004178003e40900095
:105348008080fb00d0cc2c000008b8004308de00a9
:10535800004078000080fb004400dd000040780039
:1053680000407100304798004e4090000081fb00db
:10537800d0cc2c000010b8004308de00ea00b900c9
:105388000000510000407800004178004e40900035
:105398008080fb00d0cc2c000008b8004308de0059
:1053a800004078000080fb004400dd0000407800e9
:1053b80000407100404798005e4090000081fb006b
:1053c800d0cc2c000010b8004308de00ea00b90079
:1053d8000000510000407800004178005e409000d5
:1053e8008080fb00d0cc2c000008b8004308de0009
:1053f800004078000080fb004400dd000040780099
:1054080000407100504798006e4090000081fb00fa
:10541800d0cc2c000010b8004308de00ea00b90028
:105428000000510000407800004178006e40900074
:105438008080fb00d0cc2c000008b8004308de00b8
:10544800004078000080fb004400dd000040780048
:10545800004071006047980012cea90000c8b30050
:10546800da0407001e407800d80407001e409000a8
:10547800d60407002e409000d40407003e40900058
:10548800d20407004e409000d00407005e40900010
:10549800ce0407006e409000cc04070012cea8008e
:0854a8000080fa00000006007c
:020000040000fa
:1054b0004e100000020000008000000028150000cf
:1054c00006000000800000001e1500000a00000019
:1054d00082000000a1a1a100a1a1a100a1a1a100a1
:1054e000a1000000581000006802000080000000c9
:1054f0000010000046000000800000004610000080
:1055000008000000820000000100b80088000000d0
:1055100001000000501000000200000080000000a8
:10552000461500000200000080000000521000003c
:10553000020000008000000048150000020000008a
:1055400080000000541000000200000080000000f5
:105550004a15000002000000800000005610000004
:1055600002000000800000007814000030000000fd
:105570008200000000001f00003b00005a0078007d
:1055800000970000b500d40000f3000011013000c6
:10559000014e010000001f00003c00005b0079008c
:1055a00000980000b600d50000f4000012013100a0
:1055b000014f01000c1500001200000080000000e7
:1055c0002e1500000600000080000000d21400002c
:1055d0001e0000008200000054494d00455a4f0053
:1055e0004e450000545a00003a003a00455354001a
:1055f0003a454400543a2d00303530003000000068
:105600003a1500000400000080000000341500007e
:1056100006000000800000003e15000004000000ad
:1056200080000000c01200006e0100008200000037
:1056300025630a00001813001f131f00131f130017
:105640007513750013751300fc13fc0013fc130095
:10565000fc13fc0013fc1300fc13fc0013fc1300f0
:10566000fc132a00142b14002c142d001418130002
:105670001f131f00131f13007513750013751300fc
:10568000fc13fc0013fc1300fc13fc0013fc1300c0
:10569000fc13fc0013fc1300fc132a00142b140051
