:020000040000fa
:080000000002040000000000f2
:020000040000fa
:0400080032040000be
:020000040000fa
:04000c0032040000ba
:020000040000fa
:0400100032040000b6
:020000040000fa
:0400140032040000b2
:020000040000fa
:0400180032040000ae
:020000040000fa
:04001c0032040000aa
:020000040000fa
:0400200032040000a6
:020000040000fa
:0400240032040000a2
:020000040000fa
:04002800360300009b
:020000040000fa
:04002c00320400009a
:020000040000fa
:040030003204000096
:020000040000fa
:040034009003000035
:020000040000fa
:04003800320400008e
:020000040000fa
:04003c00320400008a
:020000040000fa
:040040003204000086
:020000040000fa
:040044003204000082
:020000040000fa
:04004800c6030000eb
:020000040000fa
:04004c00320400007a
:020000040000fa
:040050003204000076
:020000040000fa
:040054003204000072
:020000040000fa
:04005800320400006e
:020000040000fa
:04005c000603000097
:020000040000fa
:040060003204000066
:020000040000fa
:040064003204000062
:020000040000fa
:04006800320400005e
:020000040000fa
:04006c00320400005a
:020000040000fa
:040070003204000056
:020000040000fa
:040074003204000052
:020000040000fa
:04007800540300002d
:020000040000fa
:04007c00320400004a
:020000040000fa
:040080003204000046
:020000040000fa
:040084003204000042
:020000040000fa
:04008800320400003e
:020000040000fa
:04008c00320400003a
:020000040000fa
:040090003204000036
:020000040000fa
:040094003204000032
:020000040000fa
:04009800fc03000065
:020000040000fa
:04009c0072030000eb
:020000040000fa
:0400a0003204000026
:020000040000fa
:0400a4003204000022
:020000040000fa
:0400a800320400001e
:020000040000fa
:0400ac00320400001a
:020000040000fa
:0400b0003204000016
:020000040000fa
:0400b4003204000012
:020000040000fa
:0400b800320400000e
:020000040000fa
:0400bc00320400000a
:020000040000fa
:0400c0003204000006
:020000040000fa
:0400c4003204000002
:020000040000fa
:0400c80032040000fe
:020000040000fa
:0400cc0032040000fa
:020000040000fa
:0400d00032040000f6
:020000040000fa
:0400d40032040000f2
:020000040000fa
:0400d80032040000ee
:020000040000fa
:0400dc0032040000ea
:020000040000fa
:0400e00032040000e6
:020000040000fa
:0400e40032040000e2
:020000040000fa
:0400e80032040000de
:020000040000fa
:0400ec0032040000da
:020000040000fa
:0400f00032040000d6
:020000040000fa
:0400f40032040000d2
:020000040000fa
:0400f80032040000ce
:020000040000fa
:0400fc0032040000ca
:020000040000fa
:0401000032040000c5
:020000040000fa
:0401040032040000c1
:020000040000fa
:0401080032040000bd
:020000040000fa
:04010c0032040000b9
:020000040000fa
:0401100032040000b5
:020000040000fa
:0401140032040000b1
:020000040000fa
:0401180032040000ad
:020000040000fa
:04011c0032040000a9
:020000040000fa
:0401200032040000a5
:020000040000fa
:0401240032040000a1
:020000040000fa
:04012800320400009d
:020000040000fa
:04012c003204000099
:020000040000fa
:040130003204000095
:020000040000fa
:040134003204000091
:020000040000fa
:04013800320400008d
:020000040000fa
:04013c003204000089
:020000040000fa
:040140003204000085
:020000040000fa
:040144003204000081
:020000040000fa
:04014800320400007d
:020000040000fa
:04014c003204000079
:020000040000fa
:040150003204000075
:020000040000fa
:040154003204000071
:020000040000fa
:04015800320400006d
:020000040000fa
:04015c003204000069
:020000040000fa
:040160003204000065
:020000040000fa
:040164003204000061
:020000040000fa
:04016800320400005d
:020000040000fa
:04016c003204000059
:020000040000fa
:040170003204000055
:020000040000fa
:040174003204000051
:020000040000fa
:04017800320400004d
:020000040000fa
:04017c003204000049
:020000040000fa
:040180003204000045
:020000040000fa
:040184003204000041
:020000040000fa
:04018800320400003d
:020000040000fa
:04018c003204000039
:020000040000fa
:040190003204000035
:020000040000fa
:040194003204000031
:020000040000fa
:04019800320400002d
:020000040000fa
:04019c003204000029
:020000040000fa
:0401a0003204000025
:020000040000fa
:0401a4003204000021
:020000040000fa
:0401a800320400001d
:020000040000fa
:0401ac003204000019
:020000040000fa
:0401b0003204000015
:020000040000fa
:0401b4003204000011
:020000040000fa
:0401b800320400000d
:020000040000fa
:0401bc003204000009
:020000040000fa
:0401c0003204000005
:020000040000fa
:0401c4003204000001
:020000040000fa
:0401c80032040000fd
:020000040000fa
:0401cc0032040000f9
:020000040000fa
:0401d00032040000f5
:020000040000fa
:0401d40032040000f1
:020000040000fa
:0401d80032040000ed
:020000040000fa
:0401dc0032040000e9
:020000040000fa
:0401e00032040000e5
:020000040000fa
:0401e40032040000e1
:020000040000fa
:0401e80032040000dd
:020000040000fa
:0401ec0032040000d9
:020000040000fa
:0401f00032040000d5
:020000040000fa
:0401f40032040000d1
:020000040000fa
:0401f80032040000cd
:020000040000fa
:0401fc0032040000c9
:020000040000fa
:0402000032040000c4
:020000040000fa
:0402040032040000c0
:020000040000fa
:0402080032040000bc
:020000040000fa
:04020c0032040000b8
:020000040000fa
:0402100032040000b4
:020000040000fa
:0402140032040000b0
:020000040000fa
:0402180032040000ac
:020000040000fa
:04021c0032040000a8
:020000040000fa
:0402200032040000a4
:020000040000fa
:0402240032040000a0
:020000040000fa
:04022800320400009c
:020000040000fa
:04022c003204000098
:020000040000fa
:040230003204000094
:020000040000fa
:040234003204000090
:020000040000fa
:04023800320400008c
:020000040000fa
:04023c003204000088
:020000040000fa
:040240003204000084
:020000040000fa
:040244003204000080
:020000040000fa
:04024800320400007c
:020000040000fa
:04024c003204000078
:020000040000fa
:040250003204000074
:020000040000fa
:040254003204000070
:020000040000fa
:04025800320400006c
:020000040000fa
:04025c003204000068
:020000040000fa
:040260003204000064
:020000040000fa
:040264003204000060
:020000040000fa
:04026800320400005c
:020000040000fa
:04026c003204000058
:020000040000fa
:040270003204000054
:020000040000fa
:040274003204000050
:020000040000fa
:04027800320400004c
:020000040000fa
:04027c003204000048
:020000040000fa
:040280003204000044
:020000040000fa
:100400002f2a21000eff27000e01880000000000a7
:10041000000020000000e000020032000001200087
:100420002002880014000700100107000000e0000f
:1004300003003a0080802100010020000200370004
:100440000000200001002000810f70000100320038
:100450000f000700000020000000e0000200320052
:100460000000020000000000e00f02000000000099
:100470000040da000000fe00200020000000e00044
:1004800002003200100020009001880000000600e9
:10049000a1028800800478000000eb001f003700f4
:1004a000e284440054a0b4009905ba00e2844400f8
:1004b00054a0b4009906ba00e284440054a0b400e9
:1004c0000006eb00476fde00fd07b200ae018800ba
:1004d000636ce10003003a000ad801000000eb0061
:1004e0000e003700606ce10008003a00004deb00a0
:1004f0000a05e800020039003420ec000af0a000f0
:100500008b05e900f9ff3e00040037006168e10057
:10051000010032000086eb000b00070019c7ba008b
:100520000e04e0001905ba0003003a000a00e000da
:10053000dbff3a0000000600fe07b200ae028800b2
:100540008a047800f5ff37000cd0a300e20f4d00bd
:100550001c00390089027800354dba000a05e80010
:10056000020039003420ec000af0a0008b05e900fd
:100570000f003200254dba000a05e80002003900dc
:100580003420ec000af0a0008b05e90008003200de
:100590000c00e0000600320015cdba000a05e800a4
:1005a000020039003420ec000af0a0008b05e900bd
:1005b0008984e80054a0b4000b00e000e2ff3a0098
:1005c000000006009902ba00055d78008b05e9007d
:1005d000f7ff3200c82ade00055d78008b05e900d0
:1005e000f3ff32000c00e000f1ff320019ddba0029
:1005f000eeff37002415040000000000341304004f
:100600000000000054140400000000003600f80050
:10061000809fbe00829fbe00849fbe00869fbe005a
:100620003200f8003400f80010002000a00188001b
:100630001000200090018800000000000000fa0077
:10064000a70a070001a8a9000080fa003400f900f9
:100650003200f9004f03be004f02be004f01be0042
:100660004f00be003600f900004006003600f800da
:10067000809fbe00829fbe00849fbe00869fbe00fa
:100680000000fa003f0a07000008a9000080fa00f5
:100690004f03be004f02be004f01be004f00be0020
:1006a0003600f900004006003600f800809fbe00ca
:1006b000829fbe00849fbe00869fbe000000fa009d
:1006c000330a07000288a9000080fa004f03be0029
:1006d0004f02be004f01be004f00be003600f900c1
:1006e000004006003600f800809fbe00829fbe00da
:1006f000849fbe00869fbe000000fa002a0a070001
:1007000003a8a9000080fa004f03be004f02be00fc
:100710004f01be004f00be003600f9000040060049
:100720003600f800809fbe00829fbe00849fbe00fe
:10073000869fbe000000fa00f08080000000e0000c
:1007400002003200f080800000000100d02921006a
:10075000104078008040e800d0292100014878004e
:10076000c029210011c0b300014878000068a90029
:100770000080fa004f03be004f02be004f01be00d2
:100780004f00be003600f900004006003600f800b9
:10079000809fbe00829fbe00849fbe00869fbe00d9
:1007a0000000fa00008180000000e000020032003a
:1007b0000081800000000100f02921001040780035
:1007c0008040e800f029210001487800e02921005c
:1007d00011c0b300014878000108a9000080fa00a8
:1007e0004f03be004f02be004f01be004f00be00cf
:1007f0003600f900004006003600f800809fbe0079
:10080000829fbe00849fbe00869fbe000000fa004b
:10081000108180000000e0000200320010818000a2
:1008200000000100102a2100104078008040e800fc
:10083000102a210001487800002a210011c0b300cd
:10084000014878000388a9000080fa004f03be0029
:100850004f02be004f01be004f00be003600f9003f
:10086000004006000040da000000fe000000050025
:020000040000fa
:100870000800fa000040eb0020479800a0020700a3
:100880000040eb00eb0807000000eb00000f7800d1
:100890000300370000c0eb000d0907001e0fe80041
:1008a000f00420009e007800808f5000f9ff360091
:1008b000890207000000eb00000f780010003700ed
:1008c000a1c4b3006011b8000040eb003002070083
:1008d000de010700204798002e409000e14f5000b5
:1008e0000c003200f07c20009e007800808f5000c9
:1008f00002003a0000c1b300030137001e0fe800f8
:10090000f07c20009e007800808f5000ecff3600c5
:100910000100370000000000420207000004e00070
:1009200002003a0010c1b300f700370031c4b30031
:10093000a21a20000300200080c0b30014020700a8
:10094000c2010700204798002e409000e14f500060
:100950001d0032000000eb00000f7800150037008a
:10096000300207000004e00002003a0010c1b300aa
:10097000e5003700c1c7b3006011b80010c0b30074
:1009800003020700b1010700204798002e409000a5
:100990000004e0009c003200f07c20009e00780003
:1009a000808f500002003a0020c1b300d60037000b
:1009b0001e0fe800f07c20009e007800808f500021
:1009c000e7ff3600930037002e409000e14f5000c3
:1009d0008b003a00ba010700200798003107980001
:1009e0002e00900020479800ae409000a0cab300af
:1009f00080cf50000200320030c1b300c200370087
:100a00002e019000be01900000f0200001002000a7
:100a1000020278000301780080017800010078006c
:100a200003026200000061008000eb00c000dd00f6
:100a3000000020000001be006120b800000171002c
:100a400081817100481add004810de00000072004c
:100a5000c818de00204798002e409000e14f50005b
:100a60000200320040c1b300a7003700ed010700cb
:100a70000004e00002003a0010c1b300a2003700f9
:100a8000e1c7b3006011b800a0c3b300c001070004
:100a90006e010700204798002e409000e14f500063
:100aa000020032002e4090009700370084010700ba
:100ab00020079800310798002e019000be01900099
:100ac00000002800f10f20000202780003017800e6
:100ad00080017800010078000302620000006100dc
:100ae0008000eb00c000dd00000020000001be001f
:100af0006120b800000171008181710000002800b0
:100b0000f10f2000800f5100818f59000200320048
:100b100040c1b3007c003700c20107000004e000c0
:100b200002003a0010c1b3007700370011c4b300cf
:100b30001200200003002000b0c3b300940107009e
:100b400042010700204798002e409000e14f5000de
:100b5000020032002e4090006b0037000000eb00d6
:100b6000000f780021003700ae0107000004e0000c
:100b700002003a0010c1b3006300370021c3b30084
:100b80006011b80070c3b300810107002f01070096
:100b900020479800a30107000004e00002003a008b
:100ba00010c1b30058003700b1c3b30002002000e9
:100bb0000300240090c2b300750107002301070061
:100bc000204798002e4090000004e0001000320002
:100bd000f07c20009e007800808f500002003a00d8
:100be00020c1b300480037001e0fe800f07c200051
:100bf0009e007800808f5000dbff36000500370034
:100c00002e40900040003700000000000100370037
:100c100000000000830107000004e00002003a0029
:100c200010c1b3003800370081c4b3006011b800b0
:100c3000b0c3b30056010700040107002047980025
:100c40002e4090000004e000020032002e40900090
:100c50002d003700730107000004e00002003a0095
:100c600010c1b30028003700a1c0b300022020004b
:100c70000300200000c1b30045010700f300070096
:100c8000204798002e4090000004e000020032004f
:100c90002e4090001c003700620107000004e000b5
:100ca00002003a0010c1b30017003700e1c7b300db
:100cb0006011b800a0c3b30035010700e3000700ce
:100cc000204798002e4090000004e000020032000f
:100cd0002e4090000c003700f90007002007980014
:100ce000310798002e009000be0090004e08de00f4
:100cf000004078001cf0b7008101070010c0b3006d
:100d0000cc070700a0cab3000080fa00000006006c
:100d10000400fa00204798002e4090000004e000f4
:100d200002003a0010c0b300204798000040eb00da
:100d3000004f78000b003700cdfe070010479800e9
:100d40009e409000a0cab30080cf50000a0032003d
:100d50006b01070000a8210061002000e5080700e2
:100d60001e4fe8002e4090009e40780080cf50003b
:100d7000f1ff390001003700000000001e40900024
:100d80000080fa00000006000800fa00881f7800c2
:100d900020079800310798000000eb00000f780052
:100da0000d00370000c0eb00c9070700204798007e
:100db0002e409000e24f40000c003200f07c2000fa
:100dc0009e007800808f500002003a0050c1b300ae
:100dd0001b0037001e0fe800f07c20009e0078000a
:100de000808f5000efff3600010037000000000048
:100df0000000eb00000f7800060037002e00900086
:100e00001e04400000c0eb00b1070700004c780052
:100e10001e0fe8003e0090009e007800808f50007a
:100e2000f6ff390000c0eb00a90707002047980033
:100e300000c0eb00a6070700204798000040eb0029
:100e40004f0478000080fa00000006000800fa0055
:100e50001007980022079800330798001e0107002a
:100e60001cd0bf00e24f500008003a002e01900055
:100e7000be0190004918dd00c710de00810070003f
:100e80004910dd002007980031079800e5000700b1
:100e90000004e00002003a0010c1b3001200370065
:100ea00080c0eb002e019000be01900010c1b30085
:100eb000b700070065000700004f78001e4078006b
:100ec0000004e000020032001e40780006003700f7
:100ed000012020001e009000abff0700004f7800ab
:100ee000070107001e4078000080fa00000006009d
:100ef0000a00fa002007980032079800430798007c
:100f0000f50007001cd0bf00e24f500008003a0077
:100f10003e019000ce0190004918dd00c710de00b0
:100f2000810070004910dd003007980041079800eb
:100f3000bc0007000004e00002003a0010c1b3004a
:100f40004000370080c0eb003e019000ce019000d1
:100f500080c1b3008e0007003c00070020479800c6
:100f60002e4090000004e000020032002e4090006d
:100f700034003700e0cfb300550707002047980042
:100f80000000eb00000f7800060037002e009000f4
:100f90001e004000104078004d07070020479800d1
:100fa0001e0fe800f01f20009e007800808f500088
:100fb000f6ff360000c0eb00450707002047980009
:100fc00000c0eb00420707002047980000c0eb007c
:100fd0003f070700204798002e4090000080fb004c
:100fe0006e0060000080d100204798008d0007004f
:100ff0000004e00002003a0010c1b3001100370005
:10100000bf0007002e409000e24f500002003a005f
:1010100060c1b3000b0037002e409000e54f500038
:1010200002003a0070c1b300060037002e40900065
:10103000e64f500002003a0080c1b30001003700c3
:10104000a0c0b3000080fa00000006000200fa0011
:1010500000c0eb001e070700004f780000c0eb0047
:101060001b070700004f78001e4078000080fa0040
:10107000000006000400fa0000c0eb00140707009f
:10108000004f780000c0eb00110707000080fb0054
:101090001007980000c0eb000d070700004f780014
:1010a0001e009000c800dd001e80fb0001007000e3
:1010b000100798001e0090000080fa000000060053
:1010c0000600fa0000c0eb00010707000080fb00eb
:1010d0008000eb00008fbe0000c0eb00fc060700a4
:1010e000404798001e0078009e0090004809dd00ef
:1010f000c801de00830171004801dd004e40900010
:101100000080fb008000eb00001f71000197710060
:1011100000c0eb00ee060700404798001e00780074
:101120009e0090004809dd00c801de0083017100c7
:101130004801dd004e4090000080fb008000eb0085
:10114000001f71000197710000c0eb00e00607006e
:10115000404798001e0078009e0090004809dd007e
:10116000c801de00830171004801dd004e4090009f
:101170000080fb008000eb00001f710001977100f0
:101180001e0078009e0090000080fa00000006001b
:101190000800fa00004f7800120798002307980013
:1011a000614798001e64a0001e407800c806070032
:1011b0001e009000ae0090004808de00004078005d
:1011c000c30607001e009000ae0090004008de003d
:1011d00000407800be0607001e009000ae009000a0
:1011e0004809dd004800de0000007100c808de008c
:1011f00000407800b60607001e009000004078000e
:10120000b30607006e4090000080fb000000400025
:10121000004078000004a000ad0607000080fa003e
:10122000000006000400fa000000eb00000f780048
:101230000d00370000c0eb00a5060700204798000e
:101240002e409000e14f40000c003200f07c200066
:101250009e007800808f500002003a000040eb00b2
:10126000080037001e0fe800f07c20009e00780088
:10127000808f5000efff36000100370000000000b3
:101280002e4090000080fa00000006000000fa00e6
:101290001100070000fa2000010020009507070058
:1012a0001700070000fa2000010020009107070046
:1012b0009070800061006000004078000004e00051
:1012c00002003200e0cdb300010037000040eb0027
:1012d0000080fa00000006000000fa008070800024
:1012e0000000a10080708800a07080000000a100b4
:1012f000a0708800000000000080fa0000000600d6
:101300000000fa00807080000000a000807088005b
:10131000000000000080fa00000006000000fa0053
:10132000207080000010a000207088000080fa006b
:10133000000006000000fa00207080000010a100ec
:10134000207088000080fa00000006000000fa000b
:1013500011aea90015aea80011eea90015eea90066
:1013600000902000d1032000620707000080fa00ef
:10137000000006000200fa00004f780015aea90038
:101380001e4078005206070015aea8000080fa0043
:10139000000006000400fa002047980015aea900de
:1013a0002e4090004a0607000040eb004806070068
:1013b000004f780015aea8001e4078000080fa00ab
:1013c000000006000800fa00204798002107980056
:1013d0006247980015aea9002e4090000054a0006e
:1013e0003b0607000040eb00004f78000600370086
:1013f0001e80fb00ae00900000804000104078008e
:10140000330607001e4fe8006e4090009e407800b3
:1014100080cf5000f6ff390015aea8000080fa001a
:10142000000006001000fa005007980061079800bd
:10143000624f980015eea9000e0078008040eb0086
:10144000014878001e4078000004a000004f78009a
:101450000e00780012c0b3008000780010c0b30006
:10146000d8ff07000e00e8008040eb00014878003c
:101470001e4090000004a000104798000e00e800f5
:1014800012c0b3008000780020c0b300cdff070079
:101490000e80e8008040eb00014878002e4090006c
:1014a0003040b300204798000e80e80012c0b3001f
:1014b0008000780030c0b300c2ff0700630047001f
:1014c0008040eb0001487800be40900000cfb300a0
:1014d00000c060000014a000304798003e4090001b
:1014e0006f4060000044a000304798006300470050
:1014f00012c0b3008000780040c0b300b1ff070005
:10150000640047008040eb00014878006e4890007e
:101510000074a1000074a1004e41900001c8b30006
:101520008140610000c0700040479800640047009f
:1015300012c0b3008000780050c0b300a1ff0700c4
:10154000650047008040eb00014878005e40900055
:101550006040b300504798005e4090000034a00007
:10156000504798006500470012c0b3008000780023
:1015700060c0b30093ff070052c0b300ee009000bc
:10158000a0c0b3008fff070052c0b300de00900080
:1015900000c1b3008bff0700660047008040eb00ee
:1015a00001487800ee40900000ccb30000c060001d
:1015b000e040b300604798006600470012c0b300e7
:1015c0008000780010c1b3007eff0700670047006d
:1015d0008040eb00014878007e4090000064a0004d
:1015e000704798007e4090000054a000704798001b
:1015f0007e4090000044a0007047980067004700bc
:1016000012c0b3008000780070c0b3006dff070007
:1016100020ceb30057ff070010ceb30055ff0700e0
:10162000680047008040eb00014878000e489000b9
:101630000014a000004f98000e4890000004a00085
:10164000004f98000e4890000024a000004f980022
:101650000e4890000034a000004f9800680047003a
:1016600012c0b300800078000040eb0055ff070077
:1016700000d42000310020009e06070015eea800cf
:101680000080fa00000006000600fa00100798002b
:101690004147980015eea90015aea90000cab30095
:1016a0008b0507000040eb00004f78000600370074
:1016b0001e80fb009e0090000080400010407800db
:1016c000830507001e4fe8004e4090009e407800c2
:1016d00080cf5000f6ff390015aea8000e00e800dc
:1016e0008040eb00014878001e4090000004a100fb
:1016f000104798001e4090000014a000104798006a
:101700001e4090000024a000104798001e4090004a
:101710000034a000104798000e00e80012c0b3008b
:10172000800078000040eb0026ff070015eea800bf
:10173000001e2000010020006e06070015eea90023
:101740000080fa00000006000200fa0015eea90071
:101750000e0078008040eb00014878001e407800c1
:101760000004a000004f78001e4078000014a00084
:10177000004f78001e4078000024a000004f780041
:101780001e4078000034a000004f78000e00780062
:1017900012c0b300800078000040eb0009ff070092
:1017a00015eea800004521000100200051060700a9
:1017b0000080fa00000006000200fa00881f78008e
:1017c0000004780070c0b300f2fe0700004f7800fc
:1017d0000e007800104c7800080078004f04780064
:1017e0000080fa00000006000600fa0010079800ca
:1017f0004147980015aea90010c6b3003405070094
:101800000040eb00004f7800080037000040eb007c
:101810002f0507009e009000804878001e00900071
:101820000000e800100798001e4fe8004e409000ae
:101830009e40780080cf5000f4ff390015aea8001c
:1018400020ceb300cbfe07000080fa0000000600a7
:101850000200fa000040eb00004f78000e00e800a4
:10186000d5ff07001e4090000044b2000004e000d5
:101870000300320010c0b300004f78000d003700a5
:101880001e4090000042b2000004e000030032005d
:1018900020c0b300004f7800060037001e409000c3
:1018a000704060000004e0000200320030c0b3006d
:1018b000004f78001e4078000080fa00000006000b
:1018c0000400fa000e80e800bbff0700ae40900065
:1018d000014f78001e4078000042b2000004e00092
:1018e0000300320010ceb300a2fe0700060037004e
:1018f0001e407800704060000004e00002003200ea
:1019000010ceb3009bfe07000e0078008040eb0075
:10191000014878001e4078000064a000004f780065
:101920001e4078000054a000004f78001e40780050
:101930000044a000004f78000e00780012c0b300f1
:101940008000780070c0b3009efe07000080fa009f
:10195000000006000200fa0015eea90000f42100c4
:1019600001002000e30507000e0078008040eb0036
:10197000014878001e4078000014a100004f780054
:101980001e4078000024a000004f78001e40780020
:101990000034a000004f78000e00780012c0b300a1
:1019a000800078000040eb0086fe070000f4210074
:1019b00001002000cf0507000080fa0000000600ab
:1019c0000200fa000e0078008040eb000148780029
:1019d0001e4078000024a100004f78001e407800cf
:1019e0000064a000004f78001e4078000034a10081
:1019f000004f78001e4078000034a100004f7800ae
:101a000012cea900e0c8b3002e0507000e00780032
:101a1000104078002b05070012cea8000080fa00c5
:101a2000000006000200fa00000f780012cea900a4
:101a30000040eb00230507000040eb0021050700f4
:101a40009e007800804878000040eb001d050700ec
:101a50009e007800904098000040eb0019050700b8
:101a60009e007800a04098000040eb00150507009c
:101a70009e007800b04098000040eb001105070080
:101a80009e007800c04098000040eb000d05070064
:101a90009e007800d04098000040eb000905070048
:101aa0009e007800e040980012cea8001e0078004a
:101ab000104078000080fb004400de000040780009
:101ac000ea00b900804078001e00780010407800dd
:101ad0006f40600080c040001e0078000148780020
:101ae0001e007800104090000080fb004400de00e3
:101af00000407800ea00b900804078001e007800bd
:101b0000104090006f40600080c040001e007800d0
:101b1000114098001e007800204090000080fb00db
:101b20004400de0000407800ea00b9008040780000
:101b30001e007800204090006f40600080c0400090
:101b40001e007800214098001e0078003040900070
:101b50000080fb004400de0000407800ea00b9008d
:101b6000804078001e007800304090006f40600098
:101b700080c040001e007800314098001e007800b0
:101b8000404090000080fb004400de0000407800f0
:101b9000ea00b900804078001e00780040409000c4
:101ba0006f40600080c040001e00780041409800f7
:101bb0001e007800504090000080fb004400de00d2
:101bc00000407800ea00b900804078001e007800ec
:101bd000504090006f40600080c040001e007800c0
:101be000514098001e007800604090000080fb008b
:101bf0004400de0000407800ea00b9008040780030
:101c00001e007800604090006f40600080c040007f
:101c10001e007800614098000080fa000000060075
:101c20000200fa00000f780012cea9000040eb007d
:101c3000a40407000040eb00a20407009e00780007
:101c4000804878000040eb009e0407009e0078006a
:101c5000904098000040eb009a0407009e00780036
:101c6000a040980012cea8001e0078001040780016
:101c70000080fb004400de0000407800ea00b9006c
:101c8000804078001e007800104078006f406000af
:101c900080c040001e007800014878001e007800d7
:101ca000104090000080fb004400de0000407800ff
:101cb000ea00b900804078001e00780010409000d3
:101cc0006f40600080c040001e0078001140980006
:101cd0001e007800204090000080fb004400de00e1
:101ce00000407800ea00b900804078001e007800cb
:101cf000204090006f40600080c040001e007800cf
:101d0000214098000080fa00000006000800fa0058
:101d1000000f7800110798002207980033079800f9
:101d20001e4078000081fb00d0cc2c000010b800d1
:101d30004308de00ea00b9000000510000407800ce
:101d4000004178001e4078008080fb00d0cc2c0041
:101d50000008b8004308de00004078000080fb0067
:101d60004400dd000040780000407100004f780022
:101d70001e4090000081fb00d0cc2c000010b80069
:101d80004308de00ea00b90000005100004078007e
:101d9000004178001e4090008080fb00d0cc2c00d9
:101da0000008b8004308de00004078000080fb0017
:101db0004400dd00004078000040710010479800aa
:101dc0002e4090000081fb00d0cc2c000010b80009
:101dd0004308de00ea00b90000005100004078002e
:101de000004178002e4090008080fb00d0cc2c0079
:101df0000008b8004308de00004078000080fb00c7
:101e00004400dd0000407800004071002047980049
:101e10003e4090000081fb00d0cc2c000010b800a8
:101e20004308de00ea00b9000000510000407800dd
:101e3000004178003e4090008080fb00d0cc2c0018
:101e40000008b8004308de00004078000080fb0076
:101e50004400dd00004078000040710030479800e9
:101e60004e4090000081fb00d0cc2c000010b80048
:101e70004308de00ea00b90000005100004078008d
:101e8000004178004e4090008080fb00d0cc2c00b8
:101e90000008b8004308de00004078000080fb0026
:101ea0004400dd0000407800004071004047980089
:101eb0005e4090000081fb00d0cc2c000010b800e8
:101ec0004308de00ea00b90000005100004078003d
:101ed000004178005e4090008080fb00d0cc2c0058
:101ee0000008b8004308de00004078000080fb00d6
:101ef0004400dd0000407800004071005047980029
:101f00006e4090000081fb00d0cc2c000010b80087
:101f10004308de00ea00b9000000510000407800ec
:101f2000004178006e4090008080fb00d0cc2c00f7
:101f30000008b8004308de00004078000080fb0085
:101f40004400dd00004078000040710060479800c8
:101f500012cea90000c8b300da0307001e407800c3
:101f6000d80307001e409000d60307002e409000c3
:101f7000d40307003e409000d20307004e4090007b
:101f8000d00307005e409000ce0307006e40900033
:101f9000cc03070012cea8000080fa000000060063
:101fa0000000fa002023a8000080fa0000000600cc
:101fb0000000fa002023a9000080fa0000000600bb
:101fc0000000fa0014000700d3030700006829008e
:101fd0008109200047040700207080000000d10024
:101fe000614060000004a200614060000080fb00ce
:101ff0006100600000004000217080000110a1001d
:10200000010070002070880000682900810920000c
:1020100038040700f0ff37000000fa000570ef00f9
:102020001370ef000670ef0040c0b30003f0b7007c
:1020300010c0b30004f0b70010c0b30002f0b70046
:102040000a30ef000e30ef001070ef001170ef005b
:102050001270ef000c30ef000170ef00808b280051
:1020600001002000a0808800b1808800a028210005
:102070008040eb00014878000830ef000d00370089
:1020800040808000312621000080400081c7b300dd
:1020900001487800408080008126210000804000b7
:1020a00081c7b30001487800408080000000e8004c
:1020b0004080880040808000e40f5000f0ff360030
:1020c0000830ef00080037004080800041222100e6
:1020d000008040008040eb00014878004080800094
:1020e0000000e8004080880041808000e00320007c
:1020f000808f5000f4ff36000830ef000d003700ed
:1021000040808000d1262100008040008040eb000c
:102110000148780040808000b12721000080400005
:102120008040eb0001487800408080000000e8001b
:102130004080880040808000ed0f5000f0ff3600a6
:102140000830ef0008003700408080004102210085
:1021500000804000a1c5b3000148780040808000a5
:102160000000e8004080880041808000f01f2000cf
:10217000808f5000f4ff36000830ef000080fa0036
:10218000000006000000fa0085ff070088ff070036
:1021900020292100a2fe070020292100904078007c
:1021a000b0272100014878003029210090407800b4
:1021b000c027210001487800402921009040780084
:1021c000d027210001487800c0808000804078003e
:1021d000e027210001487800c08080004800de0030
:1021e00080407800f027210001487800402221003b
:1021f00090407800002821000148780050222100fa
:1022000090407800102821000148780060222100c9
:102210009040780020282100014878007022210099
:102220009040780030282100014878008022210069
:102230009040780040282100014878009022210039
:10224000904078005028210001487800a022210009
:10225000904078006028210001487800b0222100d9
:10226000904078007028210001487800c0222100a9
:10227000904078008028210001487800e1c0b30038
:10228000b027210000fd07000080fa0000000600d2
:102290000000fa0021c5b300f0c2b3001d00070022
:1022a00000a82100610020009203070031c0b300a4
:1022b000d0c2b3001700070011c4b300c0c2b300fe
:1022c000140007008040eb00b0c2b300110007000b
:1022d00041c0b30080c2b3000e00070021c0b300ac
:1022e000a0c2b3000b00070051c1b30050c0b3003f
:1022f0000800070051c1b30090c2b30005000700f9
:1023000000902000d10320007a0307000080fa002b
:10231000000006000200fa00004f78001147980004
:102320001e00fb0000004000004f7800142ea900a2
:102330001e407800660207001e40900064020700fd
:10234000142ea8000080fa00000006000400fa0025
:10235000204798000040eb00004f78002e4090008e
:102360000080fb0000004000004078000004a00056
:1023700020479800142ea9002e4090005402070018
:10238000004f78000040eb0051020700004f78003a
:10239000142ea8001e4078000080fa0000000600fd
:1023a0001200fa00142ea90030c2b3004802070040
:1023b0000000eb00000f7800070037000040eb0042
:1023c00043020700804078001e0178006800410049
:1023d000017778001e0fe8001e007800e80f50001b
:1023e000f6ff3400142ea800800c2000010020000d
:1023f000400307000000eb00100798002f00370093
:102400001e0090000000e00003003a0020002000c1
:1024100020079800030037002e0090006300400062
:10242000200798002e00900068004000ee407800e1
:10243000614798006e4090006240600070479800cd
:102440007e4090000004e00013003a001e0090005f
:10245000e300b900680040006e4078000000fb0017
:10246000c800dd001e009000e300b9000000e80095
:10247000680040006e4078000000fb0081007000a2
:102480001e00900000014000602921000000410072
:1024900001087800060037001e0090008000400010
:1024a00060292100008040008000eb0001087800d6
:1024b0001e0090000000e800100798001e00900029
:1024c000e20f5000ceff34000080fa00000006004a
:1024d0000200fa00142ea90030c2b300fc0107006c
:1024e0000000eb00000f7800060037000040eb0012
:1024f000f7010700412221009e80400080487800bb
:102500001e0fe800e00320009e007800808f50003e
:10251000f6ff3400142ea800800c200001002000db
:10252000f40207000080fa00000006000000fa0034
:102530000a21ef0020262000700888000621ef0005
:10254000f09f25006008880080002800800888002f
:10255000008180000000e00002003a0040332100ca
:10256000550007000108a9002108a800e029210062
:102570008040eb00014878000080fa00000006006f
:102580000400fa00008fbe001e007800600888007a
:102590001e0078009e0090004008de0000007800d9
:1025a000700888000080fa00000006000400fa00ad
:1025b0000080eb008080eb00008fbe007008800080
:1025c0008000eb00c001dd000200200060088000f8
:1025d0008000eb00001f7100019771001e00780061
:1025e0009e0090000080fa00000006000400fa003f
:1025f000008fbe001e0078009e0090004008de00a4
:1026000000007800400888001e007800300888002c
:102610000080fa00000006000800fa000080eb00cd
:102620008080eb00008fbe003108800021079800f9
:1026300041088000310798003e0090008000eb00c8
:10264000c001dd00020020002e0090008000eb00a1
:10265000001f7100019771001e0078009e0090001d
:102660000080fa00000006000000fa0010d0bf0051
:102670000040e80010f0b7000a30ef000e30ef0025
:10268000207080000000d100614060000004a200c2
:10269000614060000080fb006100600000004000bd
:1026a000217080000110a1000100700020708800de
:1026b0000080fa00000006000200fa00000f780017
:1026c0002108a9009e007800018188002108a80047
:1026d0000080fa00000006000000fa00e029210056
:1026e0008040eb00014878002108a80011e1a80013
:1026f0000080fa00000006000000fa0011e1a900c5
:102700002108a9000080fa00000006000200fa007b
:10271000e0292100104f78001e4078000004e000fe
:1027200003003200e02921008040eb0001487800de
:102730001e4078000080fa00000006000000fa0049
:10274000f0292100104078000080fb000080fa0092
:10275000000006000000fa00f02921008040eb0094
:10276000014878000080fa00000006000000fa002e
:102770001821ef00d0f02800e00888001421ef00b5
:10278000f07f2100d008880080002800f008880031
:10279000108180000000e00002003a004045210066
:1027a000500007000388a9002388a800002a210000
:1027b0008040eb00014878000080fa00000006002d
:1027c0000400fa00008fbe001e007800d0088800c8
:1027d0001e0078009e0090004008de000000780097
:1027e000e00888000080fa00000006000400fa00fb
:1027f0000080eb008080eb00008fbe00e0088000ce
:102800008000eb00c001dd0002002000d008800045
:102810008000eb00001f7100019771001e0078001e
:102820009e0090000080fa00000006000400fa00fc
:10283000008fbe001e0078009e0090004008de0061
:1028400000007800b00888001e007800a00888000a
:102850000080fa00000006000800fa000080eb008b
:102860008080eb00008fbe00a10880002107980047
:10287000b1088000310798003e0090008000eb0016
:10288000c001dd00020020002e0090008000eb005f
:10289000001f7100019771001e0078009e009000db
:1028a0000080fa00000006000000fa001070ef003f
:1028b00011d0bf000040e80011f0b7001101210065
:1028c00091407800c0c3b30080cf500003003a00ad
:1028d00012d0bf000040e80012f0b7000080fa00fc
:1028e000000006000200fa00000f78002388a9000b
:1028f0009e007800118188002388a8000080fa00db
:10290000000006000000fa00002a21008040eb00d1
:10291000014878002388a8001fe1a8000080fa0081
:10292000000006000000fa001fe1a9002388a900aa
:102930000080fa00000006000200fa00002a2100d0
:10294000104f78001e4078000004e00003003200c1
:10295000002a21008040eb00014878001e407800ea
:102960000080fa00000006000000fa00102a210092
:10297000104078000080fb000080fa000000060094
:102980000000fa00102a21008040eb000148780086
:102990000080fa00000006000000fa000021ef00ad
:1029a000700220001008880000002800200888001d
:1029b000f08080000000e00002003a004052210058
:1029c0002f0007000068a9002068a800c029210086
:1029d0008040eb00014878000080fa00000006000b
:1029e0000200fa00000f78009e00780011088800ad
:1029f000c02921008040eb00014878000080fa00e7
:102a0000000006000000fa00100880000080fa00b4
:102a1000000006000200fa00000f78009e00780017
:102a200001088800c02921008040eb00014878009f
:102a30000080fa00000006000000fa000008800094
:102a40000080fa00000006000000fa0050808000bc
:102a50000000e8005080880051808000803e200007
:102a6000808f500004003a00708080000000e80071
:102a7000708088000a30ef000080fa000000060035
:102a80000200fa00000f78002068a9009e0078007c
:102a9000f18088002068a8000080fa00000006008d
:102aa0000000fa00c02921008040eb0001487800b6
:102ab0002068a80005e1a8000080fa0000000600d8
:102ac0000000fa0005e1a9002068a9000080fa00d2
:102ad000000006000200fa00c0292100104f780013
:102ae0001e4078000004e00003003200c0292100ed
:102af0008040eb00014878001e4078000080fa001a
:102b0000000006000000fa00d029210010407800e3
:102b10000080fb000080fa00000006000000fa00c0
:102b2000d02921008040eb00014878000080fa00a5
:102b3000000006000000fa001000200070708800fd
:102b40001e2eef00042eef0030342000a07088000d
:102b5000d001200000708800802121008070880052
:102b60000c2eef001c2eef000a2eef001a2eef00a5
:102b7000062eef00162eef00113a8000f00b200019
:102b80000081600060042000710520002374200093
:102b900080497800814978008249780001358000b9
:102ba000f00f2800808060000040220001007000cb
:102bb000003588001135800000f82f00008060008b
:102bc0004001b300103588004134800000fc2f0024
:102bd000008060009000b3004034880041348000e1
:102be000f00f2c000080600000b0a000403488008e
:102bf0006136800000f82f0080806000c002200055
:102c00000100700060368800103a800000017800f2
:102c10000260a000600420007105200023742000e1
:102c20008049780081497800824978000080fa0064
:102c3000000006000200fa00004f780041e2a900ff
:102c40001e407800e14f500003003a00a01320001e
:102c50001012880002003700801320001012880034
:102c60004422ef0000002800001288000080fa00d3
:102c7000000006000400fa00000f78001107980019
:102c80000000000000128000620060000000e00010
:102c9000fcff3a001e007800104078000080fb0026
:102ca00040128800000000000012800061006000f7
:102cb0000000e000fcff32004012800080407800fd
:102cc0001e009000014878000080fa000000060015
:102cd0000400fa00204798000e80e8008e0078007b
:102ce000e4ff07001e4078000080fa0000000600a4
:102cf0000000fa005142800080ff2f000080600039
:102d00000020a0005042880071428000f0f82f009f
:102d10008080600000032000010070007042880085
:102d200031428000f0f82f00008060000050a000c9
:102d30003042880061428000f0ff2800008060007f
:102d400000c0a000604288007142800080ff2f0018
:102d5000008060000000a0007042880011428000e6
:102d6000f0ff28000080600000c0a0001042880032
:102d70002142800080ff2f00008060000000a00042
:102d80002042880001428000f0ff2800008060009f
:102d900000c0a000004288000080fa000000060089
:102da0000000fa00e0002000303a8800213a80005c
:102db000f0f32f0000806000203a8800213a800064
:102dc00000fe2f0000806000203a880032002000c2
:102dd00080072000a109200033742000804978007a
:102de0008149780082497800103a80001200200062
:102df00060042000710520002374200080497800c1
:102e0000814978008249780000000000113a800072
:102e1000000027008080600000002300808f5000a9
:102e2000faff3a0000000000113a80000002200082
:102e3000008060000000e000fbff32000080fa002c
:102e4000000006000000fa0061e2a9002023200033
:102e5000101388006422ef006022ef0061e2a800f6
:102e60000080fa00000006000400fa00000f78005d
:102e7000110798000000000000138000620060004d
:102e80000000e000fcff3a001e00780010407800cf
:102e90000080fb0040138800000000000013800049
:102ea000610060000000e000fcff32004013800081
:102eb000804078001e009000014878000080fa00f1
:102ec000000006000400fa00204798000e80e80089
:102ed0008e007800e4ff07001e4078000080fa00b2
:102ee000000006000000fa00c3e8a8000080fa0015
:102ef000000006000200fa00000f780021028000a6
:102f0000200f2000008060001e007000200288005a
:102f10000080fa00000006000000fa00a0ff070091
:102f200004ff0700c7ff070071ff07002c00070020
:102f300059000700ebff0700d4f80700e1cdb3000c
:102f4000814f500003003a0049f6070000f0b70037
:102f50000200370010c0b30036ff070098fa0700e0
:102f6000cbfc0700f9f807008bfe07006ffd070098
:102f7000fefd070000022000deff07000080fa00cf
:102f8000000006000000fa000080fa0000000600c1
:102f90000000fa0010c0b30005f0b7004cfd0700b8
:102fa0000080fa00000006000000fa0028fa07007e
:102fb00003f0b70003d0bf00e14f500005003a0016
:102fc000e1c0b300d026210007fa07003cfa070051
:102fd000010037003afa07000080fa0000000600fe
:102fe0000000fa000008a900c208a9002008a900f2
:102ff0000288a900c228a9002288a80003a8a90065
:10300000c248a80023a8a8000080fa00000006001b
:020000040000fa
:103010001a1000000200000080000000961200005c
:103020000600000080000000241000007202000072
:1030300080000000001000001a0000008000000066
:103040001c10000002000000800000009c12000024
:1030500002000000800000001e10000002000000be
:10306000800000009e1200000200000080000000ae
:10307000201000000200000080000000a0120000ec
:10308000020000008000000022100000020000008a
:083090008000000000000000b8
:020000040000fa
:103098000000fa0000402800001988002223ef00f1
:1030a80040002000201988002823ef002e23ef007d
:1030b8003023ef003223ef002623ef0010198000a1
:1030c8004200de007f4060001af0b70021a8a80087
:1030d8000080fa00000006000000fa0000188000d6
:0c30e800c08088000080fa000000060094
:020000040000fa
:1030f400f03fb1000180b10006003500ee03090085
:1031040000000000403fb1000180b100fbff3d0022
:103114001000b000203fb00002003500008009001c
:0831240000000000000006009d
:020000040000fa
:020000040005f5
:045fe000cfff0000ef
:020000040000fa
:020000040005f5
:045fe400ffff0000bb
:020000040000fa
:020000040005f5
:045fe8007fff000037
:020000040000fa
:020000040005f5
:045fec005eff000054
:020000040000fa
:020000040005f5
:045ff00038ff000076
:020000040000fa
:020000040005f5
:045ff400ffff0000ab
:00000001FF
