:020000040000fa
:080000000002040000000000f2
:020000040000fa
:0400080032040000be
:020000040000fa
:04000c0032040000ba
:020000040000fa
:0400100032040000b6
:020000040000fa
:0400140032040000b2
:020000040000fa
:0400180032040000ae
:020000040000fa
:04001c0032040000aa
:020000040000fa
:0400200032040000a6
:020000040000fa
:0400240032040000a2
:020000040000fa
:04002800360300009b
:020000040000fa
:04002c00320400009a
:020000040000fa
:040030003204000096
:020000040000fa
:040034009003000035
:020000040000fa
:04003800320400008e
:020000040000fa
:04003c00320400008a
:020000040000fa
:040040003204000086
:020000040000fa
:040044003204000082
:020000040000fa
:04004800c6030000eb
:020000040000fa
:04004c00320400007a
:020000040000fa
:040050003204000076
:020000040000fa
:040054003204000072
:020000040000fa
:04005800320400006e
:020000040000fa
:04005c000603000097
:020000040000fa
:040060003204000066
:020000040000fa
:040064003204000062
:020000040000fa
:04006800320400005e
:020000040000fa
:04006c00320400005a
:020000040000fa
:040070003204000056
:020000040000fa
:040074003204000052
:020000040000fa
:04007800540300002d
:020000040000fa
:04007c00320400004a
:020000040000fa
:040080003204000046
:020000040000fa
:040084003204000042
:020000040000fa
:04008800320400003e
:020000040000fa
:04008c00320400003a
:020000040000fa
:040090003204000036
:020000040000fa
:040094003204000032
:020000040000fa
:04009800fc03000065
:020000040000fa
:04009c0072030000eb
:020000040000fa
:0400a0003204000026
:020000040000fa
:0400a4003204000022
:020000040000fa
:0400a800320400001e
:020000040000fa
:0400ac00320400001a
:020000040000fa
:0400b0003204000016
:020000040000fa
:0400b4003204000012
:020000040000fa
:0400b800320400000e
:020000040000fa
:0400bc00320400000a
:020000040000fa
:0400c0003204000006
:020000040000fa
:0400c4003204000002
:020000040000fa
:0400c80032040000fe
:020000040000fa
:0400cc0032040000fa
:020000040000fa
:0400d00032040000f6
:020000040000fa
:0400d40032040000f2
:020000040000fa
:0400d80032040000ee
:020000040000fa
:0400dc0032040000ea
:020000040000fa
:0400e00032040000e6
:020000040000fa
:0400e40032040000e2
:020000040000fa
:0400e80032040000de
:020000040000fa
:0400ec0032040000da
:020000040000fa
:0400f00032040000d6
:020000040000fa
:0400f40032040000d2
:020000040000fa
:0400f80032040000ce
:020000040000fa
:0400fc0032040000ca
:020000040000fa
:0401000032040000c5
:020000040000fa
:0401040032040000c1
:020000040000fa
:0401080032040000bd
:020000040000fa
:04010c0032040000b9
:020000040000fa
:0401100032040000b5
:020000040000fa
:0401140032040000b1
:020000040000fa
:0401180032040000ad
:020000040000fa
:04011c0032040000a9
:020000040000fa
:0401200032040000a5
:020000040000fa
:0401240032040000a1
:020000040000fa
:04012800320400009d
:020000040000fa
:04012c003204000099
:020000040000fa
:040130003204000095
:020000040000fa
:040134003204000091
:020000040000fa
:04013800320400008d
:020000040000fa
:04013c003204000089
:020000040000fa
:040140003204000085
:020000040000fa
:040144003204000081
:020000040000fa
:04014800320400007d
:020000040000fa
:04014c003204000079
:020000040000fa
:040150003204000075
:020000040000fa
:040154003204000071
:020000040000fa
:04015800320400006d
:020000040000fa
:04015c003204000069
:020000040000fa
:040160003204000065
:020000040000fa
:040164003204000061
:020000040000fa
:04016800320400005d
:020000040000fa
:04016c003204000059
:020000040000fa
:040170003204000055
:020000040000fa
:040174003204000051
:020000040000fa
:04017800320400004d
:020000040000fa
:04017c003204000049
:020000040000fa
:040180003204000045
:020000040000fa
:040184003204000041
:020000040000fa
:04018800320400003d
:020000040000fa
:04018c003204000039
:020000040000fa
:040190003204000035
:020000040000fa
:040194003204000031
:020000040000fa
:04019800320400002d
:020000040000fa
:04019c003204000029
:020000040000fa
:0401a0003204000025
:020000040000fa
:0401a4003204000021
:020000040000fa
:0401a800320400001d
:020000040000fa
:0401ac003204000019
:020000040000fa
:0401b0003204000015
:020000040000fa
:0401b4003204000011
:020000040000fa
:0401b800320400000d
:020000040000fa
:0401bc003204000009
:020000040000fa
:0401c0003204000005
:020000040000fa
:0401c4003204000001
:020000040000fa
:0401c80032040000fd
:020000040000fa
:0401cc0032040000f9
:020000040000fa
:0401d00032040000f5
:020000040000fa
:0401d40032040000f1
:020000040000fa
:0401d80032040000ed
:020000040000fa
:0401dc0032040000e9
:020000040000fa
:0401e00032040000e5
:020000040000fa
:0401e40032040000e1
:020000040000fa
:0401e80032040000dd
:020000040000fa
:0401ec0032040000d9
:020000040000fa
:0401f00032040000d5
:020000040000fa
:0401f40032040000d1
:020000040000fa
:0401f80032040000cd
:020000040000fa
:0401fc0032040000c9
:020000040000fa
:0402000032040000c4
:020000040000fa
:0402040032040000c0
:020000040000fa
:0402080032040000bc
:020000040000fa
:04020c0032040000b8
:020000040000fa
:0402100032040000b4
:020000040000fa
:0402140032040000b0
:020000040000fa
:0402180032040000ac
:020000040000fa
:04021c0032040000a8
:020000040000fa
:0402200032040000a4
:020000040000fa
:0402240032040000a0
:020000040000fa
:04022800320400009c
:020000040000fa
:04022c003204000098
:020000040000fa
:040230003204000094
:020000040000fa
:040234003204000090
:020000040000fa
:04023800320400008c
:020000040000fa
:04023c003204000088
:020000040000fa
:040240003204000084
:020000040000fa
:040244003204000080
:020000040000fa
:04024800320400007c
:020000040000fa
:04024c003204000078
:020000040000fa
:040250003204000074
:020000040000fa
:040254003204000070
:020000040000fa
:04025800320400006c
:020000040000fa
:04025c003204000068
:020000040000fa
:040260003204000064
:020000040000fa
:040264003204000060
:020000040000fa
:04026800320400005c
:020000040000fa
:04026c003204000058
:020000040000fa
:040270003204000054
:020000040000fa
:040274003204000050
:020000040000fa
:04027800320400004c
:020000040000fa
:04027c003204000048
:020000040000fa
:040280003204000044
:020000040000fa
:100400006f2d21000eff27000e0188000000000064
:10041000000020000000e000020032000001200087
:100420002002880014000700100107000000e0000f
:1004300003003a006099210001002000020037000b
:100440000000200001002000810f70000100320038
:100450000f000700000020000000e0000200320052
:100460000000020000000000f4090200000000008b
:100470000040da000000fe00200020000000e00044
:1004800002003200100020009001880000000600e9
:10049000a1028800800478000000eb001f003700f4
:1004a000e284440054a0b4009905ba00e2844400f8
:1004b00054a0b4009906ba00e284440054a0b400e9
:1004c0000006eb00476fde00fd07b200ae018800ba
:1004d000636ce10003003a000ad801000000eb0061
:1004e0000e003700606ce10008003a00004deb00a0
:1004f0000a05e800020039003420ec000af0a000f0
:100500008b05e900f9ff3e00040037006168e10057
:10051000010032000086eb000b00070019c7ba008b
:100520000e04e0001905ba0003003a000a00e000da
:10053000dbff3a0000000600fe07b200ae028800b2
:100540008a047800f5ff37000cd0a300e20f4d00bd
:100550001c00390089027800354dba000a05e80010
:10056000020039003420ec000af0a0008b05e900fd
:100570000f003200254dba000a05e80002003900dc
:100580003420ec000af0a0008b05e90008003200de
:100590000c00e0000600320015cdba000a05e800a4
:1005a000020039003420ec000af0a0008b05e900bd
:1005b0008984e80054a0b4000b00e000e2ff3a0098
:1005c000000006009902ba00055d78008b05e9007d
:1005d000f7ff3200c82ade00055d78008b05e900d0
:1005e000f3ff32000c00e000f1ff320019ddba0029
:1005f000eeff37005818040000000000a2160400a7
:1006000000000000a0170400000000003600f80001
:10061000809fbe00829fbe00849fbe00869fbe005a
:100620003200f8003400f80010002000a00188001b
:100630001000200090018800000000000000fa0077
:100640002d0c070001a8a9000080fa003400f90071
:100650003200f9004f03be004f02be004f01be0042
:100660004f00be003600f900004006003600f800da
:10067000809fbe00829fbe00849fbe00869fbe00fa
:100680000000fa00d50b07000008a9000080fa005e
:100690004f03be004f02be004f01be004f00be0020
:1006a0003600f900004006003600f800809fbe00ca
:1006b000829fbe00849fbe00869fbe000000fa009d
:1006c000c90b07000288a9000080fa004f03be0092
:1006d0004f02be004f01be004f00be003600f900c1
:1006e000004006003600f800809fbe00829fbe00da
:1006f000849fbe00869fbe000000fa00c00b07006a
:1007000003a8a9000080fa004f03be004f02be00fc
:100710004f01be004f00be003600f9000040060049
:100720003600f800809fbe00829fbe00849fbe00fe
:10073000869fbe000000fa00f08180000000e0000b
:1007400002003200f081800000000100102d210025
:10075000104078008040e800102d2100014878000a
:10076000002d210011c0b300014878000068a900e5
:100770000080fa004f03be004f02be004f01be00d2
:100780004f00be003600f900004006003600f800b9
:10079000809fbe00829fbe00849fbe00869fbe00d9
:1007a0000000fa00008280000000e0000200320039
:1007b0000082800000000100302d210010407800f0
:1007c0008040e800302d210001487800202d2100d4
:1007d00011c0b300014878000108a9000080fa00a8
:1007e0004f03be004f02be004f01be004f00be00cf
:1007f0003600f900004006003600f800809fbe0079
:10080000829fbe00849fbe00869fbe000000fa004b
:10081000108280000000e0000200320010828000a0
:1008200000000100502d2100104078008040e800b9
:10083000502d210001487800402d210011c0b30047
:10084000014878000388a9000080fa004f03be0029
:100850004f02be004f01be004f00be003600f9003f
:10086000004006000040da000000fe000000050025
:10087000839f68000100e00002003d00600010005e
:10088000e08018000300e00002003d00600111005c
:10089000e0811900050007004f00e00002003b0066
:1008a00060001000e0801800000006006022b80020
:1008b000060220000000d0008180d2000482d20015
:1008c0008582d2000000a0000202520083825a00fa
:1008d000030031000202420083824a000000a100ae
:0c08e0000603e900f3ff3a0000000600e8
:020000040000fa
:1008ec000800fa000040eb0020479800a002070027
:1008fc000040eb005b0a07000000eb00000f7800e3
:10090c000300370000c0eb007d0a07001e0fe80053
:10091c00f00420009e007800808f5000f9ff360014
:10092c00890207000000eb00000f78001000370070
:10093c00a1c4b3006011b8000040eb003002070006
:10094c00de010700204798002e409000e14f500038
:10095c000c003200f07c20009e007800808f50004c
:10096c0002003a0000c1b300030137001e0fe8007b
:10097c00f07c20009e007800808f5000ecff360049
:10098c000100370000000000420207000004e000f4
:10099c0002003a0010c1b300f700370031c4b300b5
:1009ac00a21a20000300200080c0b300140207002c
:1009bc00c2010700204798002e409000e14f5000e4
:1009cc001d0032000000eb00000f7800150037000e
:1009dc00300207000004e00002003a0010c1b3002e
:1009ec00e5003700c1c7b3006011b80010c0b300f8
:1009fc0003020700b1010700204798002e40900029
:100a0c000004e0009c003200f07c20009e00780086
:100a1c00808f500002003a0020c1b300d60037008e
:100a2c001e0fe800f07c20009e007800808f5000a4
:100a3c00e7ff3600930037002e409000e14f500046
:100a4c008b003a00ba010700200798003107980084
:100a5c002e00900020479800ae409000a0cab30032
:100a6c0080cf50000200320030c1b300c20037000a
:100a7c002e019000be01900000f02000010020002b
:100a8c0002027800030178008001780001007800f0
:100a9c0003026200000061008000eb00c000dd007a
:100aac00000020000001be006120b80000017100b0
:100abc0081817100481add004810de0000007200d0
:100acc00c818de00204798002e409000e14f5000df
:100adc000200320040c1b300a7003700ed0107004f
:100aec000004e00002003a0010c1b300a20037007d
:100afc00e1c7b3006011b800a0c3b300c001070088
:100b0c006e010700204798002e409000e14f5000e6
:100b1c00020032002e40900097003700840107003d
:100b2c0020079800310798002e019000be0190001c
:100b3c0000002800f10f2000020278000301780069
:100b4c00800178000100780003026200000061005f
:100b5c008000eb00c000dd00000020000001be00a2
:100b6c006120b80000017100818171000000280033
:100b7c00f10f2000800f5100818f590002003200cc
:100b8c0040c1b3007c003700c20107000004e00044
:100b9c0002003a0010c1b3007700370011c4b30053
:100bac001200200003002000b0c3b3009401070022
:100bbc0042010700204798002e409000e14f500062
:100bcc00020032002e4090006b0037000000eb005a
:100bdc00000f780021003700ae0107000004e00090
:100bec0002003a0010c1b3006300370021c3b30008
:100bfc006011b80070c3b300810107002f0107001a
:100c0c0020479800a30107000004e00002003a000e
:100c1c0010c1b30058003700b1c3b300020020006c
:100c2c000300240090c2b3007501070023010700e4
:100c3c00204798002e4090000004e0001000320085
:100c4c00f07c20009e007800808f500002003a005b
:100c5c0020c1b300480037001e0fe800f07c2000d4
:100c6c009e007800808f5000dbff360005003700b7
:100c7c002e409000400037000000000001003700bb
:100c8c0000000000830107000004e00002003a00ad
:100c9c0010c1b3003800370081c4b3006011b80034
:100cac00b0c3b300560107000401070020479800a9
:100cbc002e4090000004e000020032002e40900014
:100ccc002d003700730107000004e00002003a0019
:100cdc0010c1b30028003700a1c0b30002202000cf
:100cec000300200000c1b30045010700f30007001a
:100cfc00204798002e4090000004e00002003200d3
:100d0c002e4090001c003700620107000004e00038
:100d1c0002003a0010c1b30017003700e1c7b3005e
:100d2c006011b800a0c3b30035010700e300070051
:100d3c00204798002e4090000004e0000200320092
:100d4c002e4090000c003700f90007002007980097
:100d5c00310798002e009000be0090004e08de0077
:100d6c00004078003cf0b7008101070010c0b300d0
:100d7c003c090700a0cab3000080fa00000006007e
:100d8c000400fa00204798002e4090000004e00078
:100d9c0002003a0010c0b300204798000040eb005e
:100dac00004f78000b003700cdfe0700104798006d
:100dbc009e409000a0cab30080cf50000a003200c1
:100dcc006b01070000a82100610020004c0a0700fd
:100ddc001e4fe8002e4090009e40780080cf5000bf
:100dec00f1ff390001003700000000001e409000a8
:100dfc000080fa00000006000800fa00881f780046
:100e0c0020079800310798000000eb00000f7800d5
:100e1c000d00370000c0eb0039090700204798008f
:100e2c002e409000e24f40000c003200f07c20007d
:100e3c009e007800808f500002003a0050c1b30031
:100e4c001b0037001e0fe800f07c20009e0078008d
:100e5c00808f5000efff36000100370000000000cb
:100e6c000000eb00000f7800060037002e00900009
:100e7c001e04400000c0eb0021090700004c780064
:100e8c001e0fe8003e0090009e007800808f5000fe
:100e9c00f6ff390000c0eb00190907002047980045
:100eac0000c0eb0016090700204798000040eb003b
:100ebc004f0478000080fa00000006000800fa00d9
:100ecc001007980022079800330798001e010700ae
:100edc003cd0bf00e24f500008003a002e019000b9
:100eec00be0190004918dd00c710de0081007000c3
:100efc004910dd002007980031079800e500070035
:100f0c000004e00002003a0010c1b30012003700e8
:100f1c0080c0eb002e019000be01900010c1b30008
:100f2c00b700070065000700004f78001e407800ee
:100f3c000004e000020032001e407800060037007a
:100f4c00012020001e009000abff0700004f78002e
:100f5c00070107001e4078000080fa000000060020
:100f6c000a00fa00200798003207980043079800ff
:100f7c00f50007003cd0bf00e24f500008003a00db
:100f8c003e019000ce0190004918dd00c710de0034
:100f9c00810070004910dd0030079800410798006f
:100fac00bc0007000004e00002003a0010c1b300ce
:100fbc004000370080c0eb003e019000ce01900055
:100fcc0080c1b3008e0007003c000700204798004a
:100fdc002e4090000004e000020032002e409000f1
:100fec0034003700e0cfb300c50807002047980055
:100ffc000000eb00000f7800060037002e00900078
:10100c001e00400010407800bd08070020479800e3
:10101c001e0fe800f01f20009e007800808f50000b
:10102c00f6ff360000c0eb00b5080700204798001b
:10103c0000c0eb00b20807002047980000c0eb008e
:10104c00af080700204798002e4090000080fb005e
:10105c006e0060000080d100204798008d000700d2
:10106c000004e00002003a0010c1b3001100370088
:10107c00bf0007002e409000e24f500002003a00e3
:10108c0060c1b3000b0037002e409000e54f5000bc
:10109c0002003a0070c1b300060037002e409000e9
:1010ac00e64f500002003a0080c1b3000100370047
:1010bc00a0c0b3000080fa00000006000200fa0095
:1010cc0000c0eb008e080700004f780000c0eb005a
:1010dc008b080700004f78001e4078000080fa0053
:1010ec00000006000400fa0000c0eb0084080700b2
:1010fc00004f780000c0eb00810807000080fb0067
:10110c001007980000c0eb007d080700004f780026
:10111c001e009000c800dd001e80fb000100700066
:10112c00100798001e0090000080fa0000000600d6
:10113c000600fa0000c0eb00710807000080fb00fd
:10114c008000eb00008fbe0000c0eb006c080700b5
:10115c00404798001e0078009e0090004809dd0072
:10116c00c801de00830171004801dd004e40900093
:10117c000080fb008000eb00001f710001977100e4
:10118c0000c0eb005e080700404798001e00780086
:10119c009e0090004809dd00c801de00830171004b
:1011ac004801dd004e4090000080fb008000eb0009
:1011bc00001f71000197710000c0eb005008070080
:1011cc00404798001e0078009e0090004809dd0002
:1011dc00c801de00830171004801dd004e40900023
:1011ec000080fb008000eb00001f71000197710074
:1011fc001e0078009e0090000080fa00000006009f
:10120c000800fa00004f7800120798002307980096
:10121c00614798001e64a0001e4078003808070043
:10122c001e009000ae0090004808de0000407800e0
:10123c00330807001e009000ae0090004008de004e
:10124c00004078002e0807001e009000ae009000b1
:10125c004809dd004800de0000007100c808de000f
:10126c0000407800260807001e009000004078001f
:10127c00230807006e4090000080fb000000400037
:10128c00004078000004a0001d0807000080fa0050
:10129c00000006000400fa000000eb00000f7800cc
:1012ac000d00370000c0eb00150807002047980020
:1012bc002e409000e14f40000c003200f07c2000ea
:1012cc009e007800808f500002003a000040eb0036
:1012dc00080037001e0fe800f07c20009e0078000c
:1012ec00808f5000efff3600010037000000000037
:1012fc002e4090000080fa00000006000000fa006a
:10130c001100070000fa200001002000fc08070073
:10131c001700070000fa200001002000f808070061
:10132c009070800061006000004078000004e000d4
:10133c0002003200e0cdb300010037000040eb00aa
:10134c000080fa00000006000000fa0080708000a7
:10135c000000a10080708800a07080000000a10037
:10136c00a0708800000000000080fa000000060059
:10137c000000fa00807080000000a00080708800df
:10138c00000000000080fa00000006000000fa00d7
:10139c00207080000010a000207088000080fa00ef
:1013ac00000006000000fa00207080000010a10070
:1013bc00207088000080fa00000006000000fa008f
:1013cc002023a8000080fa00000006000000fa00ac
:1013dc002023a9000080fa00000006000000fa009b
:1013ec00c02921008040eb0001487800a0080700cc
:1013fc000068290081092000c1080700c3c0b300a0
:10140c0062c1b300012c2100502c21008402070082
:10141c00500307000630ef001200370020708000e8
:10142c000000d100614060000004a2006140600037
:10143c000080fb0061006000000040002170800013
:10144c000110a100010070002070880000902000a5
:10145c00d1032000aa080700308080000000e800bb
:10146c003080880030808000e40f5000ebff3600a5
:10147c00042ea8002000370002d0bf000080fb0023
:10148c00e20f500013003200e30f50001400320042
:10149c00e10f500015003a000270ef00c1c0b3001c
:1014ac0030282100530307000010270021002000e2
:1014bc009308070030282100104078000004e00059
:1014cc000c00320030282100104078005200070038
:1014dc00090037000270ef001e03070006003700fa
:1014ec001c0307000270ef0003003700000000002f
:1014fc00010037000000000038d0bf000004e000fd
:10150c00ddff3a000000eb000080fa00000006004e
:10151c000000fa00a9ff0700acff0700402a2100d9
:10152c002f040700f028210041c0b30001487800c7
:10153c0070808000804078000029210001487800ec
:10154c00708080004800de00804078001029210067
:10155c000148780040242100904078002029210087
:10156c000148780050242100904078003029210057
:10157c000148780060242100904078004029210027
:10158c0001487800702421009040780050292100f7
:10159c0001487800802421009040780060292100c7
:1015ac000148780090242100904078007029210097
:1015bc0001487800a0242100904078008029210067
:1015cc0001487800b0242100904078009029210037
:1015dc0001487800c024210090407800a029210007
:1015ec0001487800c1c0b300f0282100a90207000f
:1015fc000080fa00000006000000fa00402a2100da
:10160c00f7030700c1c0b300f0282100a1020700b6
:10161c000080fa00000006000200fa00004f78007b
:10162c001e80fb00e20f500018003200e30f500048
:10163c000f003200e10f500016003a0020708000bd
:10164c000000d100614060000004a2006140600015
:10165c000080fb00610060000000400021708000f1
:10166c000110a10001007000207088000a003700f2
:10167c0038d0bf000004a2000080fb0000407800be
:10168c0038f0b70000000000030037000000000035
:10169c0001003700000000000080fa000000060086
:1016ac001000fa0081818000301f2000808f5000d4
:1016bc004b003c00d028210010407800e14f500036
:1016cc000c003a0000022100bb00070000022100c0
:1016dc0061000700e0808800f18088008002210012
:1016ec0039010700f028210021c0b300014878001f
:1016fc0057003700d028210010407800e24f5000ee
:10170c0053003a0000022100ab0007000002210048
:10171c007e000700c0808800d1808800e2808000b5
:10172c00f3808000c0808000d180800000005100d8
:10173c00818059004f09de008001eb00020040005f
:10174c00838048008180d1000080d300008fbe00d0
:10175c00e2808000f3808000c0808000d180800017
:10176c0002004000838048004f09de008001eb003e
:10177c0002004000838048008180d1000080d300ab
:10178c002007980031079800a0808000b18080006d
:10179c003e014000ae8148000200be00a0808800df
:1017ac00b180880082808000938080002e009000a1
:1017bc00be009000020040008380480080808800ba
:1017cc0091808800f028210011c0b30001487800f6
:1017dc00808180000000e800808188001c003700b8
:1017ec00a0808000b1808000421f200003002000f8
:1017fc001cfc07004007980051079800808080006f
:10180c0091808000421f20000300200015fc07007f
:10181c006007980071079800f028210031c0b300d0
:10182c00014878003030ef001430ef001630ef0034
:10183c001030ef001230ef006000b8004007980045
:10184c00510798006000b800600798007107980075
:10185c000080fa00000006000a00fa004007980019
:10186c006000b8006011b800009fbe000297be0077
:10187c001e0078009e00900002a02c008289b90006
:10188c00a3b923008382b9008401780003014100cd
:10189c0003a02c000300b800010141008200780075
:1018ac002e019000be01900000024100818249008f
:1018bc004e00900090009000100078000260230011
:1018cc008289b90053462c008383b90086017800c5
:1018dc0003014100036023000300b8000101410033
:1018ec00820078004e01900064014100920190004a
:1018fc001201780002005000838058000400400060
:10190c00858048000080fa00000006000200fa0002
:10191c00000f78001e0078009000900010007800f6
:10192c0002a02c008289b900a3b923008382b900dc
:10193c00840178000301410003a02c000300b800cf
:10194c0001014100820078001e037800640143000d
:10195c00920190001201780000024100818249003e
:10196c00800221009000900010007800026023009b
:10197c008289b90053462c008383b9008601780014
:10198c0003014100036023000300b8000101410082
:10199c008200780082022100b201900022019000a6
:1019ac0002005000838058000400400085804800ed
:1019bc000080fa00000006001200fa00000f9800e8
:1019cc006000b800008fbe006000b80020079800cf
:1019dc00310798006000b800400798005107980044
:1019ec006000b8006007980071079800702821000b
:1019fc00104078000080fb008000eb00600798002e
:101a0c00710798006e009000fe009000c800dd0089
:101a1c0000002000600798007107980060282100e2
:101a2c00104078000080fb008000eb00400798001d
:101a3c00510798004e009000de009000c000dd00c1
:101a4c000000200040079800510798005028210002
:101a5c00104078000080fb008000eb00200798000d
:101a6c00310798002e019000be0190004818dd004f
:101a7c00c810de00810070004810dd0020079800bf
:101a8c003107980040282100104078000080fb00ae
:101a9c008000eb00008fbe006e019000fe019000f4
:101aac004e009000de0090000001710081817100f9
:101abc002e009000be00900000007100818071002b
:101acc001e1f70001e9770000e0890003e187800c4
:101adc002e107800b0282100104078000080fb0008
:101aec008000eb0060079800710798006e00900072
:101afc00fe009000c800dd00000020006007980088
:101b0c0071079800a0282100104078000080fb008d
:101b1c008000eb0040079800510798004e009000a1
:101b2c00de009000c000dd0000002000400798009f
:101b3c005107980090282100104078000080fb008d
:101b4c008000eb0020079800310798002e019000d0
:101b5c00be0190004818dd00c810de008100700046
:101b6c004810dd00200798003107980080282100dc
:101b7c00104078000080fb008000eb00008fbe005e
:101b8c006e019000fe0190004e009000de0090006f
:101b9c0000017100818171002e009000be00900048
:101bac0000007100818071001e1f70001e97700074
:101bbc000e089000640040003e1878002e1078004b
:101bcc000080fa00000006000200fa00889fbe00a8
:101bdc008a9fbe008c9fbe00000f78001e0078000c
:101bec000000e00053003200f02821008040eb00a0
:101bfc00014878001e0078009000900010007800da
:101c0c008040780000292100014878001e007800ef
:101c1c0090009000100078004809dd004806de00b6
:101c2c000c067100c88ede008c4078001029210053
:101c3c00014878001e007800900090001000780099
:101c4c00408dde00cf8dde008a40780020292100f7
:101c5c00014878001e007800900090001000780079
:101c6c00488cde00cf8cde008840780030292100c3
:101c7c00014878009e00780064804000900090003d
:101c8c00100078008040780040292100014878003d
:101c9c001e01780064004100900090001000780054
:101cac004809dd004803de0006037100c88bde0026
:101cbc008640780050292100014878009e00780069
:101ccc00648040009000900010007800408ade0094
:101cdc00cf8ade008440780060292100014878001a
:101cec001e01780064004100900090001000780004
:101cfc004889de00cf89de008240780070292100ff
:101d0c0001487800802921008040eb0001487800d0
:101d1c00902921008040eb0001487800a029210087
:101d2c008040eb0001487800b02921008040eb0096
:101d3c00014878004f06be004f05be004f04be00a0
:101d4c000080fa00000006000000fa0011aea900a5
:101d5c0015aea80011eea90015eea9000090200008
:101d6c00d1032000660607000080fa000000060080
:101d7c000200fa00004f780015aea9001e40780052
:101d8c005f05070015aea8000080fa0000000600f1
:101d9c000400fa002047980015aea9002e409000d0
:101dac00570507000040eb0055050700004f780071
:101dbc0015aea8001e4078000080fa000000060056
:101dcc000800fa0020479800210798006247980005
:101ddc0015aea9002e4090000054a0004805070045
:101dec000040eb00004f7800060037001e80fb001f
:101dfc00ae009000008040001040780040050700c5
:101e0c001e4fe8006e4090009e40780080cf50003e
:101e1c00f6ff390015aea8000080fa00000006009d
:101e2c001000fa005007980061079800624f980064
:101e3c00734f980015eea9000e0078008040eb005f
:101e4c00014878001e4078000004a000004f780084
:101e5c000e00780012c0b3008000780010c0b300f0
:101e6c00d7ff07000e00e8008040eb000148780027
:101e7c001e4090000004a000104798000e00e800df
:101e8c0012c0b3008000780020c0b300ccff070064
:101e9c000e80e8008040eb00014878002e40900056
:101eac003040b300204798000e80e80012c0b30009
:101ebc008000780030c0b300c1ff0700630047000a
:101ecc008040eb0001487800be40900000cfb3008a
:101edc0000c060000014a000304798003e40900005
:101eec006f4060000044a00030479800630047003a
:101efc0012c0b3008000780040c0b300b0ff0700f0
:101f0c00640047008040eb00014878006e48900068
:101f1c000074a1000074a1004e41900001c8b300f0
:101f2c008140610000c07000404798006400470089
:101f3c0012c0b3008000780050c0b300a0ff0700af
:101f4c00650047008040eb00014878005e4090003f
:101f5c006040b300504798005e4090000034a000f1
:101f6c00504798006500470012c0b300800078000d
:101f7c0060c0b30092ff070052c0b300ee009000a7
:101f8c00a0c0b3008eff070052c0b300de0090006b
:101f9c0000c1b3008aff0700660047008040eb00d9
:101fac00014878007e489000f043b200f043b20044
:101fbc006e41900001ccb3008140610000c0700004
:101fcc00604798006600470012c0b300800078009c
:101fdc0010c1b3007aff0700670047008040eb0098
:101fec00014878007e4090000064a0007047980083
:101ffc007e4090000054a000704798007e409000f6
:10200c000044a000704798006700470012c0b3005e
:10201c008000780070c0b30069ff070020ceb300c9
:10202c0053ff070010ceb30051ff070068004700b4
:10203c008040eb00014878000e4890000014a0008e
:10204c00004f98000e4890000004a000004f98002c
:10205c000e4890000024a000004f98000e489000fd
:10206c000034a000004f98006800470012c0b30075
:10207c00800078000040eb0051ff070000d42000e6
:10208c00310020009e05070015eea8000080fa0024
:10209c00000006000600fa0010079800414798005f
:1020ac0015eea90015aea90000cab30094040700f0
:1020bc000040eb00004f7800060037001e80fb004c
:1020cc009e00900000804000104078008c040700b7
:1020dc001e4fe8004e4090009e40780080cf50008c
:1020ec00f6ff390015aea8000e00e8008040eb00aa
:1020fc00014878001e4090000004a1001047980091
:10210c001e4090000014a000104798001e40900044
:10211c000024a000104798001e4090000034a0003e
:10212c00104798000e00e80012c0b3008000780041
:10213c000040eb0022ff070015eea800001e200057
:10214c00010020006e05070015eea9000080fa00c2
:10215c00000006000200fa0015eea9000e0078003f
:10216c008040eb00014878001e4078000004a0007d
:10217c00004f78001e4078000014a000004f78003b
:10218c001e4078000024a000004f78001e4078000c
:10219c000034a000004f78000e00780012c0b3008d
:1021ac00800078000040eb0005ff070015eea8004a
:1021bc000045210001002000510507000080fa00b5
:1021cc00000006000200fa00881f78000004780066
:1021dc0070c0b300eefe0700004f78000e007800d0
:1021ec00104c7800080078004f0478000080fa004a
:1021fc00000006000600fa001007980041479800fe
:10220c0015aea90010c6b3003d0407000040eb005a
:10221c00004f7800080037000040eb00380407003e
:10222c009e009000804878001e0090000000e8009e
:10223c00100798001e4fe8004e4090009e4078001a
:10224c0080cf5000f4ff390015aea80020ceb300ab
:10225c00c7fe07000080fa00000006000200fa002a
:10226c000040eb00004f78000e00e800d5ff07009f
:10227c001e4090000044b2000004e0000300320055
:10228c0010c0b300004f78000d0037001e409000c6
:10229c000042b2000004e0000300320020c0b30092
:1022ac00004f7800060037001e4090007040600020
:1022bc000004e0000200320030c0b300004f780090
:1022cc001e4078000080fa00000006000200fa00b0
:1022dc000e0078008040eb00014878001e4078002a
:1022ec000064a000004f78001e4078000054a0004d
:1022fc00004f78001e4078000044a000004f78008a
:10230c000e00780012c0b3008000780070c0b300db
:10231c00abfe07000080fa00000006000200fa0085
:10232c0010ceb30092fe070010ceb30090fe070053
:10233c0015eea9000e0078008040eb0001487800f3
:10234c001e4078000014a100004f78001e40780059
:10235c000024a000004f78001e4078000034a0003c
:10236c00004f78000e00780012c0b3008000780097
:10237c000040eb0092fe07000080fa00000006000f
:10238c000200fa000e0078008040eb000148780053
:10239c001e4078000024a100004f78001e407800f9
:1023ac000064a000004f78001e4078000034a100ab
:1023bc00004f78001e4078000034a100004f7800d8
:1023cc0012cea900e0c8b300790407000e00780013
:1023dc00104078007604070012cea8000080fa00a6
:1023ec00000006000200fa00000f780012cea900cf
:1023fc000040eb006e0407000040eb006c0407008b
:10240c009e007800804878000040eb0068040700cc
:10241c009e007800904098000040eb006404070098
:10242c009e007800a04098000040eb00600407007c
:10243c009e007800b04098000040eb005c04070060
:10244c009e007800c04098000040eb005804070044
:10245c009e007800d04098000040eb005404070028
:10246c009e007800e040980012cea8001e00780074
:10247c00104078000080fb004400de000040780033
:10248c00ea00b900804078001e0078001040780007
:10249c006f40600080c040001e007800014878004a
:1024ac001e007800104090000080fb004400de000d
:1024bc0000407800ea00b900804078001e007800e7
:1024cc00104090006f40600080c040001e007800fb
:1024dc00114098001e007800204090000080fb0006
:1024ec004400de0000407800ea00b900804078002b
:1024fc001e007800204090006f40600080c04000bb
:10250c001e007800214098001e007800304090009a
:10251c000080fb004400de0000407800ea00b900b7
:10252c00804078001e007800304090006f406000c2
:10253c0080c040001e007800314098001e007800da
:10254c00404090000080fb004400de00004078001a
:10255c00ea00b900804078001e00780040409000ee
:10256c006f40600080c040001e0078004140980021
:10257c001e007800504090000080fb004400de00fc
:10258c0000407800ea00b900804078001e00780016
:10259c00504090006f40600080c040001e007800ea
:1025ac00514098001e007800604090000080fb00b5
:1025bc004400de0000407800ea00b900804078005a
:1025cc001e007800604090006f40600080c04000aa
:1025dc001e007800614098000080fa0000000600a0
:1025ec000200fa00000f780012cea9000040eb00a8
:1025fc00ef0307000040eb00ed0307009e0078009e
:10260c00804878000040eb00e90307009e0078004a
:10261c00904098000040eb00e50307009e00780016
:10262c00a040980012cea8001e0078001040780040
:10263c000080fb004400de0000407800ea00b90096
:10264c00804078001e007800104078006f406000d9
:10265c0080c040001e007800014878001e00780001
:10266c00104090000080fb004400de000040780029
:10267c00ea00b900804078001e00780010409000fd
:10268c006f40600080c040001e0078001140980030
:10269c001e007800204090000080fb004400de000b
:1026ac0000407800ea00b900804078001e007800f5
:1026bc00204090006f40600080c040001e007800f9
:1026cc00214098000080fa00000006000800fa0083
:1026dc00000f780011079800220798003307980024
:1026ec001e4078000081fb00d0cc2c000010b800fc
:1026fc004308de00ea00b9000000510000407800f9
:10270c00004178001e4078008080fb00d0cc2c006b
:10271c000008b8004308de00004078000080fb0091
:10272c004400dd000040780000407100004f78004c
:10273c001e4090000081fb00d0cc2c000010b80093
:10274c004308de00ea00b9000000510000407800a8
:10275c00004178001e4090008080fb00d0cc2c0003
:10276c000008b8004308de00004078000080fb0041
:10277c004400dd00004078000040710010479800d4
:10278c002e4090000081fb00d0cc2c000010b80033
:10279c004308de00ea00b900000051000040780058
:1027ac00004178002e4090008080fb00d0cc2c00a3
:1027bc000008b8004308de00004078000080fb00f1
:1027cc004400dd0000407800004071002047980074
:1027dc003e4090000081fb00d0cc2c000010b800d3
:1027ec004308de00ea00b900000051000040780008
:1027fc00004178003e4090008080fb00d0cc2c0043
:10280c000008b8004308de00004078000080fb00a0
:10281c004400dd0000407800004071003047980013
:10282c004e4090000081fb00d0cc2c000010b80072
:10283c004308de00ea00b9000000510000407800b7
:10284c00004178004e4090008080fb00d0cc2c00e2
:10285c000008b8004308de00004078000080fb0050
:10286c004400dd00004078000040710040479800b3
:10287c005e4090000081fb00d0cc2c000010b80012
:10288c004308de00ea00b900000051000040780067
:10289c00004178005e4090008080fb00d0cc2c0082
:1028ac000008b8004308de00004078000080fb0000
:1028bc004400dd0000407800004071005047980053
:1028cc006e4090000081fb00d0cc2c000010b800b2
:1028dc004308de00ea00b900000051000040780017
:1028ec00004178006e4090008080fb00d0cc2c0022
:1028fc000008b8004308de00004078000080fb00b0
:10290c004400dd00004078000040710060479800f2
:10291c0012cea90000c8b300250307001e407800a2
:10292c00230307001e409000210307002e40900057
:10293c001f0307003e4090001d0307004e4090000f
:10294c001b0307005e409000190307006e409000c7
:10295c001703070012cea8000080fa000000060042
:10296c000000fa0021c5b300f0c2b3001d0007003f
:10297c0000a82100610020006103070031c0b300f2
:10298c00d0c2b3001700070011c4b300c0c2b3001b
:10299c00140007008040eb00b0c2b3001100070028
:1029ac0041c0b30080c2b3000e00070021c0b300c9
:1029bc00a0c2b3000b00070051c1b30050c0b3005c
:1029cc000800070051c1b30090c2b3000500070016
:1029dc0000902000d1032000490307000080fa007a
:1029ec00000006000200fa00004f78001147980022
:1029fc001e00fb0000004000004f7800142ea900c0
:102a0c001e4078003e0207001e4090003c0207006a
:102a1c00142ea8000080fa00000006000400fa0042
:102a2c00204798000040eb00004f78002e409000ab
:102a3c000080fb0000004000004078000004a00073
:102a4c0020479800142ea9002e4090002c0207005d
:102a5c00004f78000040eb0029020700004f78007f
:102a6c00142ea8001e4078000080fa00000006001a
:102a7c001200fa00142ea90030c2b3002002070085
:102a8c000000eb00000f7800070037000040eb005f
:102a9c001b020700804078001e017800680041008e
:102aac00017778001e0fe8001e007800e80f500038
:102abc00f6ff3400142ea800800c2000010020002a
:102acc000f0307000000eb00100798002f003700e1
:102adc001e0090000000e00003003a0020002000df
:102aec0020079800030037002e0090006300400080
:102afc00200798002e00900068004000ee407800ff
:102b0c00614798006e4090006240600070479800ea
:102b1c007e4090000004e00013003a001e0090007c
:102b2c00e300b900680040006e4078000000fb0034
:102b3c00c800dd001e009000e300b9000000e800b2
:102b4c00680040006e4078000000fb0081007000bf
:102b5c001e00900000014000a02c2100000041004c
:102b6c0001087800060037001e009000800040002d
:102b7c00a02c2100008040008000eb0001087800b0
:102b8c001e0090000000e800100798001e00900046
:102b9c00e20f5000ceff34000080fa000000060067
:102bac000200fa00142ea90030c2b300d4010700b1
:102bbc000000eb00000f7800060037000040eb002f
:102bcc00cf010700412421009e80400080487800fe
:102bdc001e0fe800e00320009e007800808f50005c
:102bec00f6ff3400142ea800800c200001002000f9
:102bfc00c30207000080fa00000006000000fa0083
:102c0c000a21ef0020262000700888000621ef0022
:102c1c00f09f25006008880080002800800888004c
:102c2c00008280000000e00002003a00206a2100cf
:102c3c00440007000108a9002108a800202d21004c
:102c4c008040eb00014878000080fa00000006008c
:102c5c000400fa00008fbe001e0078006008880097
:102c6c001e0078009e0090004008de0000007800f6
:102c7c00700888000080fa00000006000400fa00ca
:102c8c000080eb008080eb00008fbe00700880009d
:102c9c008000eb00c001dd00020020006008800015
:102cac008000eb00001f7100019771001e0078007e
:102cbc009e0090000080fa00000006000400fa005c
:102ccc00008fbe001e0078009e0090004008de00c1
:102cdc0000007800400888001e007800300888004a
:102cec000080fa00000006000800fa000080eb00eb
:102cfc008080eb00008fbe00310880002107980017
:102d0c0041088000310798003e0090008000eb00e5
:102d1c00c001dd00020020002e0090008000eb00be
:102d2c00001f7100019771001e0078009e0090003a
:102d3c000080fa00000006000000fa000080fa0093
:102d4c00000006000200fa00000f78002108a9001c
:102d5c009e007800018288002108a8000080fa00fb
:102d6c00000006000000fa00202d21008040eb003e
:102d7c00014878002108a80011e1a8000080fa00a1
:102d8c00000006000000fa0011e1a9002108a900ca
:102d9c000080fa00000006000200fa00202d21003d
:102dac00104f78001e4078000004e0000300320051
:102dbc00202d21008040eb00014878001e40780057
:102dcc000080fa00000006000000fa00302d2100ff
:102ddc00104078000080fb000080fa000000060024
:102dec000000fa00302d21008040eb0001487800f3
:102dfc000080fa00000006000000fa001821ef0025
:102e0c00d0f02800e00888001421ef00f07f2100aa
:102e1c00d008880080002800f0088800108280000c
:102e2c000000e00002003a00007a21004400070094
:102e3c000388a9002388a800402d21008040eb00c6
:102e4c00014878000080fa00000006000400fa0037
:102e5c00008fbe001e007800d00888001e0078008d
:102e6c009e0090004008de0000007800e00888001a
:102e7c000080fa00000006000400fa000080eb005d
:102e8c008080eb00008fbe00e00880008000eb002b
:102e9c00c001dd0002002000d00880008000eb00a3
:102eac00001f7100019771001e0078009e009000b9
:102ebc000080fa00000006000400fa00008fbe003b
:102ecc001e0078009e0090004008de000000780094
:102edc00b00888001e007800a00888000080fa0066
:102eec00000006000800fa000080eb008080eb0078
:102efc00008fbe00a108800021079800b108800057
:102f0c00310798003e0090008000eb00c001dd000e
:102f1c00020020002e0090008000eb00001f7100ca
:102f2c00019771001e0078009e0090000080fa004e
:102f3c00000006000000fa000080fa000000060005
:102f4c000200fa00000f78002388a9009e00780088
:102f5c00118288002388a8000080fa000000060077
:102f6c000000fa00402d21008040eb000148780061
:102f7c002388a8001fe1a8000080fa0000000600ca
:102f8c000000fa001fe1a9002388a9000080fa00c4
:102f9c00000006000200fa00402d2100104f7800be
:102fac001e4078000004e00003003200402d210098
:102fbc008040eb00014878001e4078000080fa0049
:102fcc00000006000000fa00502d2100104078008f
:102fdc000080fb000080fa00000006000000fa00f0
:102fec00502d21008040eb00014878000080fa0051
:102ffc00000006000000fa000021ef007002200023
:10300c00100888000000280020088800f08180004b
:10301c000000e00002003a00808521002400070037
:10302c000068a9002068a800002d21008040eb005a
:10303c00014878000080fa00000006000200fa0047
:10304c00000f78009e00780011088800002d2100e8
:10305c008040eb00014878000080fa000000060078
:10306c000000fa00100880000080fa000000060042
:10307c000200fa00000f78009e007800010888001a
:10308c00002d21008040eb00014878000080fa0000
:10309c00000006000000fa00000880000080fa0022
:1030ac00000006000000fa000080fa000000060094
:1030bc000200fa00000f78002068a9009e0078003a
:1030cc00f18188002068a8000080fa00000006004a
:1030dc000000fa00002d21008040eb000148780030
:1030ec002068a80005e1a8000080fa000000060096
:1030fc000000fa0005e1a9002068a9000080fa0090
:10310c00000006000200fa00002d2100104f78008c
:10311c001e4078000004e00003003200002d210066
:10312c008040eb00014878001e4078000080fa00d7
:10313c00000006000000fa00102d2100104078005d
:10314c000080fb000080fa00000006000000fa007e
:10315c00102d21008040eb00014878000080fa001f
:10316c00000006000000fa001000200070708800bb
:10317c001e2eef00042eef0030342000a0708800cb
:10318c00d001200000708800802121008070880010
:10319c000c2eef001c2eef000a2eef001a2eef0063
:1031ac00062eef00162eef00113a8000f00b2000d7
:1031bc000081600060042000710520002374200051
:1031cc008049780081497800824978000135800077
:1031dc00f00f280080806000004022000100700089
:1031ec00003588001135800000f82f000080600049
:1031fc004001b300103588004134800000fc2f00e2
:10320c00008060009000b30040348800413480009e
:10321c00f00f2c000080600000b0a000403488004b
:10322c006136800000f82f0080806000c002200012
:10323c000100700060368800103a800000017800b0
:10324c000260a0006004200071052000237420009f
:10325c008049780081497800824978000080fa0022
:10326c00000006000200fa00004f780041e2a900bd
:10327c001e407800e14f500003003a00a0132000dc
:10328c0010128800020037008013200010128800f2
:10329c004422ef0000002800001288000080fa0091
:1032ac00000006000400fa00000f780011079800d7
:1032bc000000000000128000620060000000e000ce
:1032cc00fcff3a001e007800104078000080fb00e4
:1032dc0040128800000000000012800061006000b5
:1032ec000000e000fcff32004012800080407800bb
:1032fc001e009000014878000080fa0000000600d3
:10330c000400fa00204798000e80e8008e00780038
:10331c00e4ff07001e4078000080fa000000060061
:020000040000fa
:10332c003a1000000200000080000000ca120000e9
:10333c000600000080000000c01200000a0000001f
:10334c0082000000a1a1a100a1a1a100a1a1a10046
:10335c00a1000000441000007c020000800000006e
:10336c00001000003200000080000000321000004d
:10337c0008000000820000000100b8008800000076
:10338c00010000003c100000020000008000000062
:10339c00d012000002000000800000003e1000006f
:1033ac000200000080000000d212000002000000a9
:1033bc0080000000401000000200000080000000af
:1033cc00d412000002000000800000004210000037
:0c33dc0002000000800000000000000063
:020000040000fa
:1033e8000000fa005142800080ff2f00008060003a
:1033f8000020a0005042880071428000f0f82f00a1
:103408008080600000032000010070007042880086
:1034180031428000f0f82f00008060000050a000ca
:103428003042880061428000f0ff28000080600080
:1034380000c0a000604288007142800080ff2f0019
:10344800008060000000a0007042880011428000e7
:10345800f0ff28000080600000c0a0001042880033
:103468002142800080ff2f00008060000000a00043
:103478002042880001428000f0ff280000806000a0
:1034880000c0a000004288000080fa00000006008a
:103498000000fa00e0002000303a8800213a80005d
:1034a800f0f32f0000806000203a8800213a800065
:1034b80000fe2f0000806000203a880032002000c3
:1034c80080072000a109200033742000804978007b
:1034d8008149780082497800103a80001200200063
:1034e80060042000710520002374200080497800c2
:1034f800814978008249780000000000113a800074
:10350800000027008080600000002300808f5000aa
:10351800faff3a0000000000113a80000002200083
:10352800008060000000e000fbff32000080fa002d
:10353800000006000000fa0061e2a9002023200034
:10354800101388006422ef006022ef0061e2a800f7
:103558000080fa00000006000400fa00000f78005e
:10356800110798000000000000138000620060004e
:103578000000e000fcff3a001e00780010407800d0
:103588000080fb004013880000000000001380004a
:10359800610060000000e000fcff32004013800082
:1035a800804078001e009000014878000080fa00f2
:1035b800000006000400fa00204798000e80e8008a
:1035c8008e007800e4ff07001e4078000080fa00b3
:1035d800000006000000fa000080fa000000060063
:1035e8000000fa0010c0b30003f0b7006dfd07003b
:1035f8000080fa00000006000000fa0018fb07002f
:1036080002f0b70032fb07000080fa000000060055
:103618000000fa000008a900c208a9002008a900b3
:103628000288a900c228a9002288a80003a8a90026
:10363800c248a80023a8a8000080fa0000000600dd
:103648000000fa00c3e8a8000080fa0000000600a5
:103658000200fa00000f780021028000200f2000ed
:10366800008060001e007000200288000080fa00c0
:10367800000006000000fa0085ff0700bafe0700f8
:1036880057ff0700e2ff0700edff070010c0b30077
:10369800f5fe0700adf9070000022000ecff070067
:1036a8000080fa00000006000000fa000040280030
:1036b800001988002223ef0040002000201988000c
:1036c8002823ef002e23ef003023ef003223ef00f2
:1036d8002623ef00101980004200de007f406000c2
:1036e8003af0b70021a8a8000080fa000000060000
:1036f8000000fa0000188000708088000080fa003e
:0437080000000600b7
:020000040000fa
:10370c00f03fb1000180b10006003500ee03090066
:10371c0000000000403fb1000180b100fbff3d0004
:10372c001000b000203fb0000200350000800900fe
:08373c0000000000000006007f
:020000040000fa
:020000040005f5
:045fe000cfff0000ef
:020000040000fa
:020000040005f5
:045fe400ffff0000bb
:020000040000fa
:020000040005f5
:045fe8007fff000037
:020000040000fa
:020000040005f5
:045fec005eff000054
:020000040000fa
:020000040005f5
:045ff00038ff000076
:020000040000fa
:020000040005f5
:045ff400ffff0000ab
:00000001FF
